:020000040800F2
:1000000028F500205D0200084F8C0008A77F00083B
:100010004D8C0008E9600008FD9300080000000016
:100020000000000000000000000000009D0100082A
:10003000D561000800000000F9010008BD8E00082D
:1000400077020008770200087702000877020008AC
:10005000770200087702000877020008770200089C
:10006000770200087702000877020008770200088C
:10007000770200087702000877020008770200087C
:10008000770200087702000877020008770200086C
:10009000770200087702000877020008770200085C
:1000A000770200087702000877020008770200084C
:1000B00077020008818F00087702000877020008A5
:1000C000770200087702000877020008770200082C
:1000D000770200087702000877020008770200081C
:1000E000770200087702000877020008770200080C
:1000F00077020008770200087702000877020008FC
:1001000077020008770200088D8F00087702000848
:10011000770200087702000877020008998F00082C
:1001200077020008770200084161000877020008A2
:1001300077020008770200087702000877020008BB
:1001400077020008770200087702000877020008AB
:1001500077020008770200084D6100087702000866
:10016000770200087702000877020008770200088B
:1001700077020008770200087702000800000000FC
:100180007702000877020008DFF80CD000F002FCCC
:100190000048004775B7000828F500202C4B196867
:1001A0000868B0E8F04F80F30988BFF36F8F4FF015
:1001B000000080F3118870470000000008480068C4
:1001C000006880F308884FF0000080F3148862B65E
:1001D00061B6BFF34F8FBFF36F8F00DF00BF00BF6B
:1001E00008ED00E0DFF80C00016841F470010160E7
:1001F000704700BF88ED00E0EFF30980BFF36F8F19
:10020000134B1A681EF0100F08BF20ED108A20E96A
:10021000F04F106009B44FF0500080F31188BFF325
:100220004F8FBFF36F8F0DF0E9FF4FF0000080F3A9
:10023000118809BC19680868B0E8F04F1EF0100F6B
:1002400008BFB0EC108A80F30988BFF36F8F704746
:1002500048000020EFF30580704700000648804703
:1002600006480047FEE7FEE7FEE7FEE7FEE7FEE79B
:10027000FEE7FEE7FEE7FEE7718F00088901000850
:100280002DE9F05F0546002092469B4688460646CB
:10029000814640241BE0284641464746224600F05E
:1002A00093FA53465A46C01A914110D31146184644
:1002B000224600F07AFA2D1A67EB01084F462246D3
:1002C0000120002100F071FA17EB00094E41201EB9
:1002D000A4F10104DFDC484631462A464346BDE826
:1002E000F09F2DE9F0410024061B254671F1000620
:1002F00005DA01240027D0EB070067EB0101161E89
:1003000073F1000605DA0027D2EB0702012567EB3F
:100310000303FFF7B5FF86460E4617469C46AC42E0
:1003200004D00025D0EB050E65EB010624B10020BA
:10033000D2EB000760EB030C704631463A46634649
:10034000BDE8F08110B5441A0346944209D28418DE
:10035000114403E011F8013D04F8013D521EF9D2A9
:1003600010BD40EA0104A40703D009E010C9121F20
:1003700010C3042AFAD203E011F8014B03F8014B31
:10038000521EF9D210BDD2B201E000F8012B491E75
:10039000FBD270470022F6E710B513460A46044622
:1003A0001946FFF7F0FF204610BD30B50446002087
:1003B000034600E05B1C934203D2E05CCD5C401B33
:1003C000F8D030BD2DE9FE4F804681EA0300C00F12
:1003D0000C46009021F0004123F00045B8EB0200EC
:1003E000A94105D24046214690461C460B4602468E
:1003F00023F00040104347D0270DC7F30A00C3F392
:100400000A510290401A019040286BDAC3F313009E
:1004100040F4801B0098924620B10023D2EB030ADF
:1004200063EB0B0B01985946C0F14002504600F0B7
:10043000BCF906460D4650465946019A00F0D4F9DB
:1004400010EB08006141002487EA115284EAE77347
:100450001A4340D0009A62B3019A012A4FEA075228
:1004600015DC001B61EB02014FF0004202EA07526B
:10047000CDE90042001C41F5801132462B4600F0C8
:100480000BFA03B0BDE8F08F40462146F9E7001BA8
:1004900061EB0201001C41F5801300185B4120183C
:1004A000A2F5001747EB030140EAD570B6196D417C
:1004B00011E06D084FEA360645EAC0754FEA07526B
:1004C000001B61EB0201001C41F5801149084FEA55
:1004D00030000019514132462B4603B0BDE8F04FC1
:1004E00000F0CBB90098012240000023D0EB0202BB
:1004F00063EBE073009821464FEAE074B8EB00002C
:1005000061EB0401E9E783F000435BE781F0004120
:1005100058E72DE9FE4F81EA030404F0004421F07E
:10052000004100944FF0000B23F0004350EA010417
:100530005ED052EA03045BD0C3F30A54C1F30A55F8
:100540002C44A4F2F3340194A0FB0254C1F3130130
:1005500041F48011C3F3130343F4801301FB0244FD
:1005600000FB034E840A970A44EA815447EA835702
:10057000A4FB076802958D0A05FB07854FEA932CBB
:1005800004FB0C542705029D4FEA065847EA16372C
:10059000B5EB08056EEB070C870E920E47EA811744
:1005A00042EA8312A7FB0201B6EB0B0164EB0004E5
:1005B0002B0D43EA0C335E1844EB1C50DA465146CF
:1005C000E7FB0201C5F313044FEA0B3343EA14536C
:1005D0004FEA0432019C43EA0603A4F10C0402949E
:1005E000009CCDE900B400F057F903B0BDE8F08FEE
:1005F00000200146F9E72DE9F04D81EA030404F0FB
:10060000004B21F0004514464FF0000A23F0004152
:1006100050EA050220D054EA01021DD0C5F30A5762
:100620000246C5F31303C1F31300C1F30A5640F4A5
:10063000801543F48013A7EB0608101BD64608F27A
:10064000FD3873EB050002D308F1010801E09218B0
:100650005B41B8F1000F03DA00200146BDE8F08DE0
:1006600000204FF48011064684460EE0171B73EB02
:10067000050705D3121B63EB050306434CEA010C87
:1006800049084FEA300092185B4150EA0107EDD16A
:1006900052EA030012D082EA040083EA050108430B
:1006A00005D0101BAB4106D20122002306E0002238
:1006B0004FF0004302E06FF0010253101AEB060006
:1006C0004CEB085110EB0A0041EB0B01BDE8F04D7B
:1006D00000F0D3B80EB540F2334102910021CDE9CC
:1006E00000110A460B4600F0D7F803B000BDC1F375
:1006F0000A5210B5C1F3130140F2FF3341F48011E7
:100700009A4201DA002010BD40F233439A42A2F22D
:10071000334203DC524200F057F810BD904010BD48
:1007200000F0004230F000400AD0C10D01F56071C8
:10073000C0F3160042EA0151C20840071143704756
:1007400000200146704701F0004330B421F0004121
:1007500050EA010206D00A0DA2F56072C1F313013E
:10076000002A02DC30BC00207047440F44EAC10478
:10077000C100E01830BC00EBC25000F047B830B503
:100780000B46014600202022012409E021FA02F54F
:100790009D4205D303FA02F5491B04FA02F52844E9
:1007A000151EA2F10102F1DC30BD202A04DB203A43
:1007B00000FA02F1002070479140C2F1200320FAB4
:1007C00003F3194390407047202A04DB203A21FAB2
:1007D00002F00021704721FA02F3D040C2F120025A
:1007E0009140084319467047202A06DBCB17203A70
:1007F00041FA02F043EAE07306E041FA02F3D04026
:10080000C2F1200291400843194670470029A8BF51
:100810007047401C490008BF20F00100704710B429
:10082000B0FA80FC00FA0CF050EA010404BF10BCDE
:10083000704749B1CCF1200421FA04F411FA0CF10B
:1008400018BF012121430843A3EB0C01CB1D4FEA44
:1008500000614FEA102042BF002010BC704700EB3F
:10086000C35010440029A4BF10BC7047401C49006D
:1008700008BF20F0010010BC704710B5141E73F1C2
:10088000000408DA401C41F1000192185B411A4350
:1008900001D120F0010010BD2DE9F04D92469B469C
:1008A00011B1B1FA81F202E0B0FA80F22032904642
:1008B000FFF77BFF04460F4640EA0A0041EA0B01BE
:1008C00053465A46084313D0114653EA010019D043
:1008D000C8F140025046FFF777FF05460E465046E6
:1008E00059464246FFF761FF084305D0012004E066
:1008F00020463946BDE8F08D0020054346EAE07603
:100900002C4337430A986305E40AA0EB0800002251
:10091000FD0A44EA47540A3002D500200146E9E7BF
:10092000010510196941DDE9084500196941BDE873
:10093000F04DA2E7C1F30A52C1F3130140F2FF33B5
:1009400041F480119A4202DA00200146704740F2D9
:1009500033439A42A2F2334202DC5242FFF734BFE1
:10096000FFF723BF30B5041E71F1000404DB4FF024
:100970000044404264EB0101141E73F1000405DBE6
:100980001C464FF00043524263EB0403994208BFF8
:10099000904230BD064C074D06E0E06840F0010390
:1009A00094E8070098471034AC42F6D3FFF7F0FB09
:1009B000C81E0208E81E020870B58C1810F8015B0A
:1009C00015F0070301D110F8013B2A1106D110F8E8
:1009D000012B03E010F8016B01F8016B5B1EF9D1EC
:1009E0002B0705D40023521E0DD401F8013BFAE772
:1009F00010F8013BCB1A921C03E013F8015B01F8DD
:100A0000015B521EF9D5A142D8D3002070BD000071
:100A10000A2810B5044603D1BDE8104000F04EBCD2
:100A20000D2810D000F04AFE074B1B68DB692046FA
:100A30001B689847054B1B680BB120469847BDE8DB
:100A4000104001F0AFBB10BD840100201CB5002098
:100A50002DE9F041D0F80C8086B0044600200E4607
:100A6000174601F001FB0546B8F1000F05D098F8D4
:100A7000043013B140F0020001E025F0020001F063
:100A8000F3FA216969B101206388228803900290FA
:100A9000E0680190A06800900C6830463946A04795
:100AA0001FE0DFF85080124BD8F800201B68527C02
:100AB000E06821469847E18820B9012904BFD8F8A9
:100AC0000030986B638822880590A0680490A08805
:100AD000029101210390019100913046394602F0C4
:100AE00041FA284606B0BDE8F04101F0BDBA00BFAA
:100AF00074010020840100204D4B2DE9F04F1A684D
:100B0000D169CC69A38983428BB008D8E589854235
:100B100005D325680695C31A4FF0FF3613E0A36886
:100B2000002B7CD01D88A84279D35E88864276D37C
:100B30005B6866680696401B80B203EB800533F95C
:100B40002030B5F902600993581C68D091F818B0AC
:100B5000B2F92A90A17C364DB2F92270B2F9248004
:100B600094F810A01BFB01F34846079302F0A8FD80
:100B70002968079BCA69896B0591089006991846F0
:100B8000099B00FB03100490A37C039301230293B1
:100B9000D37E0193937E009352465B46414638468E
:100BA00002F0E0F9731C1AD049F0020002F088FD4F
:100BB0002A680699D369926B0592079A02FB06167A
:100BC0000496A27C039201220292DA7E01929B7E1D
:100BD000009352465B464146384602F0C3F92B6803
:100BE000DB695A7E1B7E9A4215D9B9F1020F12D0E9
:100BF00089F0040002F064FD0D4B1B68DB69187E70
:100C0000D97E9A7E5B7E00FB018143440AFB02721F
:100C1000384602F011FB9DF8200002F051FD044B14
:100C2000617C1A68538C0B4453840BB0BDE8F08F81
:100C300084010020044B1B68DB69DB6909B11A7C65
:100C40000A60587C704700BF8401002002230B809B
:100C50007047C3699A898A4202D8DA898A420FD2D8
:100C6000986880B1038899420CD342888A4209D39C
:100C7000C91A436833F82100C043C0F3C03070473D
:100C800001207047002070472DE9F04F384C236851
:100C9000B3F92A80DB6989B006460146D86900F0BD
:100CA00092F8002860D005884768751B07EBC506D9
:100CB000404696F802A002F003FDD4F800C017F8F1
:100CC0003520DCF81CE0DCF838309EF818B0BCF9B0
:100CD00024108146BCF922000593736804934FF0F9
:100CE000010CCDF80CA0CDF808C09EF81BC0CDF8C3
:100CF00004C09EF81AE0CDF800E05B4602F032F93D
:100D00002368DB69597E93F818A00791514520D9D3
:100D1000B8F1020F1DD093F81BB000F0EDFB804638
:100D200000F0B8FB01F08FF923680799B3F924E0CC
:100D3000B3F92200DB6917F83550DA7E0BFB01E3CB
:100D400005FB02020BFB0AE102F076FA404601F0D5
:100D50007AF9484602F0B4FC23687178DA69907E2B
:100D60005A8C00FB01225A8409B0BDE8F08F00BF05
:100D70008401002038B50D4B1B68DD6902460C4626
:100D80000146E86900F01FF870B10388D21A436881
:100D900003EBC2014878A97E10FB01F024B113F8DF
:100DA000323011FB03F3236038BD00BF8401002003
:100DB00001230B80704708B5C06900F004F80030CB
:100DC00018BF012008BD38B103888B4202D8438880
:100DD0008B4201D28068F6E7704700002DE9F047AA
:100DE000DFF86480DFF85890DFF858A00025D8F8C5
:100DF00000309D4217DAD9F80070DAF800107C262E
:100E00006E43BC19231D74221846FFF79BFA00227B
:100E1000BA5104F10C02A26104F10802E0632264F9
:100E200060640135E3E704F027FC054B1A687C2376
:100E300003FB0020034B04301860BDE8F08700BFBF
:100E400068B30020840100208C01002070B50E4E94
:100E50000E4B0F4D304640F80C3F01F0F5FF2C686B
:100E60007C235C43204600F06DF80A4B306022463C
:100E70001B68002198474FF0FF336B6005F05AFA6A
:100E8000BDE8704004F0F8BB68B30020C15B000807
:100E90008C010020A001002010B5044638B100F0FC
:100EA0000DFC204603F06AFB044601F07BF9204666
:100EB00010BD000073B5054600F000FC2846FFF7A2
:100EC000EBFF064660B100F0ADF802AC074B44F80A
:100ED000040D1B682A4600219847204600F0B0F810
:100EE00001F060F9304602B070BD00BFA0010020E3
:100EF000024B21F0030118605960704744B2002092
:100F000010B5044680B100F0D9FB084B5B6B03EBD6
:100F1000C4035968486803F0DFFA204604F0CAFEAB
:100F2000BDE8104001F03EB910BD00BF2CB4002058
:100F300028B1034BDA6B026002B15060D86370478E
:100F40002CB400202DE9F0410746264E033704F06B
:100F500065FC27F00307306CF26B0437874238BF1B
:100F60000746144634B154F8043C9F4223682CD001
:100F70001C46F7E7F368B26B02EB030858F8045C11
:100F8000C5EB08052B6833B1204604F0C5FE58F8C0
:100F9000045CC5EB08052B680BBB6B689F421EDC2D
:100FA00028461C1D04F098FEF3686868DB1BF3609C
:100FB0007369E41B3B44C01B2C44736102D0294677
:100FC00003F08AFA44F8047C09E00BB161685960C7
:100FD000616801B10B60A24201D12368F36320462E
:100FE000BDE8F0812CB4002008B504F017FC0C4AD1
:100FF00000239918D1F8BC0010B1836800200BE0E1
:10100000083B13F1800FF4D108E05A689B689042C6
:1010100038BF104613B19B68002BF6D10C3808BDC1
:101020002CB40020054BDA690132DA615A6B12F8F0
:101030003030013302F8303000F01AB82CB4002000
:1010400030B50368094953F8085C4C6B14F8353027
:10105000012B03D9CA690AB1013ACA61013B04F8FC
:10106000353000230360184630BD00BF2CB400208B
:10107000034B5B6B03EBC00040680830704700BF58
:101080002CB40020C3B2CAB29A1A92B210B514B2EC
:10109000002CBCBF524214B2C0F30723C1F3072295
:1010A0009B1A9BB2090C1AB2C1EB1041002A89B2FB
:1010B00008B2BCBF5B421AB20028BCBF494208B2AA
:1010C000524304FB042280B200FB002010BD00004C
:1010D00010B50021084600F063FA044943F6FF7397
:1010E0001A460846BDE8104000F002B801C0FFFFF4
:1010F0002DE9F34116461F4604460D4600F0DEFA80
:10110000042002F0DDFA144B1B69DA6C1B6D80467B
:1011100014441D4416441F446846ADF80040ADF821
:101120000460ADF80250ADF8067003F04FF838B91E
:10113000404602F0C5FA01F035F802B0BDE8F08192
:101140003B4632462946204602F076F802F054FF2C
:101150000028F5D1ECE700BF74010020012BF8B5A1
:1011600006460D4617461C4601DD0020F8BD1C2032
:10117000FFF7E8FE0028F8D00DB1056109E0094B42
:1011800053F8241029B10B680BB11946FBE70B6922
:1011900003610023836084618782C66003604360CB
:1011A000F8BD00BF00B5002038B51D46FFF7D6FFDB
:1011B000044648B100F00EF8E3681B6823B9034BFE
:1011C00016351B6843F82540204638BD84010020B1
:1011D000FFF7AEBE30B508B9012030BD8469012CDF
:1011E000FADC1B4B1A789442A4BF621C1A70194A8D
:1011F00052F8243015461BB942F82400184630BD79
:101200005A680AB11346FBE7C2681268D9680968D0
:10121000914203DD1B68002BF8D1DDE709D1818AFB
:10122000012906D1196821B10B46C96809688A42AB
:10123000F8DD5A6812B11060426001E045F8240000
:101240005860984208BF00230360002030BD00BFF3
:10125000FDB4002000B5002010B520B10468FFF7F0
:10126000B9FF2046F9E710BD81690A4A52F82130DA
:101270009842036804D142F821300BB100225A6031
:10128000426802B11360036803B15A60002303602F
:101290004360704700B5002000207047012809DC3A
:1012A000054B53F8200020B1C3681B681BB10068D0
:1012B000F9E770470020704700B5002008B500F03E
:1012C000FDF900F025F9054B1B689A8C10441A8C27
:1012D00098845A84BDE8084000F064BF840100206F
:1012E0002DE9F04F054685B0002800F08480434C7E
:1012F00000F0E4F900F00CF923680746B3F9228006
:1013000000F020F92268938C86B29B1B9384A1463F
:101310002B78002B61D047F6FF71284601F046FC80
:1013200001468246284601F011FC2268938D03F0A5
:101330000303012B04D0022B04D190FBF3F302E052
:10134000034600E00023518CCB1A9BB219B21FFA5E
:1013500080FB5184ADF80810B2F92420ADF80A20C2
:101360000BF1FF310B44ADF80C30013ABBB21A441B
:10137000ADF80E20514602AA2846019301F016F856
:101380002268BDF80A1091842846514600F0CCFE30
:101390002A5C019B0A2A05EB000E01D00D2A12D10E
:1013A0002268918D01F00301013901298ABF118C56
:1013B000A2F8228051849EF800100A290AD1918C4B
:1013C0000B44938406E0BDF80800D9F8003083444C
:1013D000A3F822B09EF8003053B923689A8C1644C3
:1013E0009A8D9E8422F003029A8500F0DBFE02E0D3
:1013F0000EF101058CE705B0BDE8F08F84010020F7
:1014000070B50E461546044600F058F9054B1B68AA
:1014100020465E849D84FFF763FFBDE8704000F0C6
:10142000C1BE00BF8401002073B5064615460C46B8
:1014300000F044F9114B1B68DA6C1B6D1D443388B6
:10144000ADF802501444013B2344ADF804307388D6
:10145000ADF80040013B2B446846ADF8063002F081
:10146000B5FE18B900F09EFE02B070BD2A462146B6
:101470003046FFF7EDFA02F0BFFDF2E784010020ED
:10148000034B53F82000C36808219B6A184700BF2C
:1014900000B5002010B500F011F901F0FDFE01F0DB
:1014A000D9FF044600F07EFE204610BD10B504466C
:1014B00000F004F9054B1B68DB6900215B682046DE
:1014C0009847044600F06EFE204610BD84010020BF
:1014D00038B504460D4600F0F1F8064B1B68DB6991
:1014E00029465B6820469847044600F05BFE20468C
:1014F00038BD00BF8401002010B500F0DFF801F016
:10150000D3FE01F0A7FF044600F04CFE204610BDBC
:1015100010B500F0D3F8044B1B68DB695C7E00F06B
:1015200041FE204610BD00BF840100200448352341
:10153000037034238370C37061230371704700BF4D
:101540006C01002010B500F0B9F80C4B1A68938DAF
:1015500003F00C03082B07D00C2B05D0042B07D16C
:10156000D3691C7E013C04E0D3691C7E640800E062
:10157000002400F017FE204610BD00BF84010020AB
:10158000024B53F820301B691868704700B50020E3
:10159000024B53F820301B695868704700B5002093
:1015A00038B505460C4600F089F8044B1B685D848D
:1015B0009C8400F0F7FD002038BD00BF84010020AE
:1015C00090B583B000AF344A334B1B6823F001035E
:1015D0001360324B01221A6000BF304B1B68002B96
:1015E000FBD12F4B2F4A1A602D4B1B682E4A93427A
:1015F00000D0FEE700F090FE2C4B2E221A7004F073
:1016000097FE2B4804F0CAF804F0DCFC786001F087
:10161000D5FE0346002B0CBF01230023DCB201F0F2
:10162000D7FE0346002B0CBF01230023DBB223436C
:10163000DBB2002B09D001F0C7FE044601F0CEFE5C
:1016400003461946204602F035F80021002000F03C
:1016500027FD02F025FBFFF7C1FB164B1B68002B93
:1016600012D00DE0134B1B681B68002B03D0114BED
:101670001B681B6898470F4B1B685B680D4A13601B
:101680000C4B1B68002BEDD10B4B01221A707B68B1
:1016900018460C37BD4690BD002000E008300240DF
:1016A00000300240C2A507F4CDB5E8B5F0B4002083
:1016B00058B20020D0B20020FCB400202DE9F04147
:1016C000194C636823B104F031FEA368984204D03A
:1016D00004F04EFE04F02AFEA0606368DFF8488044
:1016E0000133012B63601CD103F0C6FF0F4A53681E
:1016F00098420746164614D0002B11DBD8F800504C
:101700007C2404FB0355FFF7C7FDD8F80030A86719
:1017100004FB0734064BA06F221D1A60FFF79CFDE7
:101720007760BDE8F08100BF68B300208C01002025
:101730008401002037B50446F0B1FFF7BFFF0F4B1F
:101740001B681B6E9C4201D100F048FC2046FFF74D
:1017500069FC0190406908B100F00BFD02AD55F83D
:10176000043D1868FFF734FD2846FFF769FC204662
:10177000FFF7C6FB00F016FD03B030BD840100206A
:1017800037B5044698B1FFF799FF2046FFF74AFCAA
:10179000036802AD1B6945F8040D9B68984702F089
:1017A0001AF904462846FFF74BFC00F0FBFC2046E4
:1017B00003B030BD13B5044670B1FFF77FFF20467C
:1017C000FFF730FC02AB00F1180443F8040D184693
:1017D000FFF736FC00F0E6FC204602B010BD00002A
:1017E0002DE9F04F9BB0054608910992002800F0C2
:1017F0009983FFF717FC1AAB446943F81C0D184690
:10180000FFF71EFC2846FFF7BBFF08280746A54E3A
:1018100002DD002C00F0C98101230027284619931E
:101820000D931897FFF7FEFB0268B0F90A301269B2
:101830000E930DF168095368326849F8140D046974
:10184000D0F81480D0F80CA0B0F908B0507C0C93FC
:10185000FFF716FE32680B90507CFFF799FE0A9056
:101860004846FFF7EDFB082C0A9A0D9B04D9102C73
:101870008CBF0423022305E0012C03D118AB0D9487
:101880000A9301E00D930A970C9B934200F0DF80CE
:101890003368587CFFF774FE0F904FEA8B00FFF718
:1018A000FBFA1090002800F03D832846FFF782FFE6
:1018B0000546B8F1000F00F0B9804046FFF7B2FBD3
:1018C00005EB0A0311930023DDF824901690099389
:1018D000119B099ACAEB03070E9B934240F3A28027
:1018E0001698099A0023179383680DF15C085B69C9
:1018F000414698478345054628D11098FFF792FB4B
:101900000F9B0193082C0C9B1490014600935A46A0
:101910000B9B384602D902F050FF01E002F06CFF49
:101920000A9B05931AAD089855F8183D04930023B7
:1019300003930B9B02930123019300935A4649465C
:1019400001F010FB2846FFF77BFB62E0012C02D080
:101950004FF0010857E0002D5BD01798089ECDF896
:101960000CA000F0070306930A9B0593082390FB45
:10197000F3F33B44049301232A460293019300931B
:101980004946304401F0FCFE179B1698099A1D4405
:10199000836817955B69414698470546DBE71098D1
:1019A000FFF740FB0F9B149001460D9E1798019383
:1019B000082C0C9B00932A460B9B00FB067025D934
:1019C00002F0FBFE0A9B0593149B04931798089E54
:1019D000CDF80480002303930B9B02932A46012336
:1019E00049463044CDF8008001F0BCFA14A8FFF756
:1019F00027FB179B1698099A1D44836817955B6906
:101A000017A998470546002DC9D102E002F0F4FE5F
:101A1000D8E7099B01330993119B5344119309F1B2
:101A2000010955E716A8FFF70BFB0EE00A9B05938B
:101A30000123049001930093CDF80CA002940E9B17
:101A4000099908985A4601F08DFA109868E22846DC
:101A5000FFF7B0FE0746B8F1000F00F09A8040464D
:101A6000FFF7E0FA002516900E9BAB4240F38D8005
:101A700016980023179383680DF15C085B692A466A
:101A8000414698478345064626D12E4616988368D8
:101A900006F101095B694A4641469847834503D1EF
:101AA0004E46F3E7840100200A9B09990593C5EB94
:101AB0000608012308F101080497019300932944C3
:101AC000CDF80CA0029443465A46089801F04AFA11
:101AD0000AFB0877354656E0012C099B04D02B44BD
:101AE0000B934FF001092BE003EB0509A0462EB341
:101AF000DDF85CE00898CDF80CA00EF00703069323
:101B00000A9B059308239EFBF3F33B443246704443
:101B1000049349460123CDF80880CDF80480CDF820
:101B2000008001F02DFE179B16981E4483681796BF
:101B30005B692A4617A998470646D8E7574422E02A
:101B4000002EFBD00A9BDDF85CE005930D9B089806
:101B50000B99CDF80CA003FB0E733246704404932E
:101B600002940123CDF80490CDF8009001F0FAF929
:101B7000179B16981E44836817965B692A46414650
:101B800098470646DCE701356EE716A8FFF758FAD6
:101B9000C8E10A9B05930123019300930490CDF8BB
:101BA0000CA002940E9B5A463AE02846FFF73AFAF8
:101BB00083461AA8BBF90A3040F810BDDBF80020B4
:101BC0000B93DBF80C30D2F810800C93BBF9084073
:101BD000FFF736FA3268D8F80490507CA14A52F8E0
:101BE0002020166933680A93FFF74AFC08280C9BEB
:101BF00006D910288CBF4FF0040A4FF0020A01E00A
:101C00004FF0010AB04510D10393012300220BF1DC
:101C10001800019300930B9B0592049002972246B3
:101C20000999089801F09EF97CE1202F40F0A280EC
:101C30000AFB04F0FFF730F90D90002800F07281E4
:101C4000FFF7F0F918902846FFF7ECF91690336982
:101C50004FEACA0200F118054FEA840B0C9273B3E5
:101C6000DDF824804FF00109BAF1020F05D0BAF176
:101C7000040F02D0BAF1010F06D12846376918992E
:101C800053462246B8475D440023189A05930393B0
:101C90000C9B0492029322460123CDF80490CDF8C8
:101CA00000904146089801F05DF90B9B099A08F1F4
:101CB000010713449F4200F02C81B846D4E7099FE6
:101CC0001E460B9B3B444FF001090993BAF1020FEA
:101CD000DDF8608016D0BAF1040F24D0BAF1010FFC
:101CE00030D143462A4652F8040B0E930A9B0B92BE
:101CF00098470E9B0B9A03F8010BE11A18EB010FA2
:101D0000F1D11EE043462A46A04652F8040B0E933A
:101D10000A9B0B9298470E9B0B9A23F8020BB8F183
:101D20000108F2D10DE02A46234652F8040B0E9327
:101D30000A9B0B9298470E9B48F8040B013B0B9AA9
:101D4000F3D15D44189B04930C9B029305960123E9
:101D50000396CDF80490CDF80090224639460898B5
:101D600001F000F9099B07F10108434500F0D1801B
:101D70004746ABE7102F40F0D58004FB0AF0FFF791
:101D80008BF80D90002800F0CD80FFF74BF91890EC
:101D90002846FFF747F91690336900F1180713B189
:101DA000D8F8143053B94FEACA03099D0C930B9B22
:101DB0002B4466004FF0000B099383E0B0F9080054
:101DC0008000FFF769F80C9018B1FFF72BF9179016
:101DD00001E00C9B1793179B002B00F09A80630087
:101DE0000A93DDF824B04FEACA030E93BAF1020F4A
:101DF000DDF8609006D0BAF1040F05D0BAF1010FFA
:101E000011D101E0534600E00223384622461799DB
:101E1000D8F81450A84753462246494617983569C2
:101E2000A8470A9B1F440023059303930E9B189A0F
:101E30000293012304920193009322465946089885
:101E400001F090F80B9B099A0BF101091344994595
:101E500001D0CB46CAE717A8FFF7F2F80C98FFF7B6
:101E60004FF856E000B50020BAF1040F41D0BAF1A6
:101E7000010F11D143463A4632F8020B0B920E93F2
:101E8000C8470A9B98470E9B0B9A03F8010BE11A6F
:101E900018EB010FF0D13744189B04930C9B02936D
:101EA000012301930093CDF814B0CDF80CB0224675
:101EB0002946089801F056F8099B05F101084345A9
:101EC00027D04546BAF1020FDDF86080CCD14346F9
:101ED0003A46A04632F8020B0B920E93C8470A9B73
:101EE00098470E9B0B9A23F8020BB8F10108F1D129
:101EF000D1E73A46234632F8020B0B920E93C847BD
:101F00000A9B98470E9B48F8040B013B0B9AF2D1B1
:101F1000C1E716A8FFF794F818A8FFF791F80D98F5
:101F2000FEF7EEFF1BB0BDE8F08F00BF10B538B371
:101F300009B30AB3B2F90040B1F90030A342A8BF17
:101F400023460380B2F90240B1F90230A342A8BF90
:101F500023464380B2F90440B1F90430B2F90620B7
:101F6000A342B8BF23468380B1F906309342B8BF7D
:101F70001346C38010BD11460B6803604B68436075
:101F800010BD68B1038889B20B440380838819446B
:101F90004388818092B213444380C3881A44C2802C
:101FA0007047B0F90220B1F906309A4214DCB1F959
:101FB0000220B0F906309A420EDCB0F90020B1F9E7
:101FC00004309A4208DCB0F90400B1F900308342D1
:101FD000CCBF0020012070470020704708B5FFF7F4
:101FE0006DFB01F0FDFA01F0B9FB01F00BFDBDE85E
:101FF000084000F0D7B8000070B50B4D2B680446C0
:102000005E7CFFF75BFB012C09D82046FFF746F901
:1020100028B12B685C74FFF7E1FF044B1C6000F0F3
:10202000C1F8304670BD00BF8401002040F500209B
:1020300010B50446FFF742FB204601F0F1FABDE877
:10204000104000F0AFB810B50446FFF737FB20464C
:1020500001F01EFBBDE8104000F0A4B8014B586031
:10206000704700BF7401002010B50446FFF726FB3F
:10207000204601F025FB044600F094F8204610BDF0
:1020800038B50446FFF71AFB044B1B68DD6904B141
:10209000DC6100F087F8284638BD00BF84010020CD
:1020A00070B504460D46FFF709FB094B1C80094B30
:1020B0001D80094B1B685A7C084B53F82200C268EC
:1020C0002146166A2A46B047BDE8704000F06AB85B
:1020D000F2B40020F4B400208401002000B50020F8
:1020E000024B1B6803B11847704700BF7CB3002048
:1020F000024B1A6802B91860FFF7F2BF08B300205C
:10210000F8B5084E0468336805461B6820469847B2
:10211000336807465B682046984720442860384665
:10212000F8BD00BF14B50020F8B5074F06460D46B0
:1021300000243DB13B6830465B689847013D06444A
:102140000444F6E72046F8BD14B500202DE9F84315
:10215000089C0546884699461444AB68561C5F683F
:1021600041464B462846B847B4423246F5D1BDE811
:10217000F88337B50546FFF7A1FA2846FEF752FF68
:1021800002AB848943F8040D013C24B284811846D3
:10219000FEF756FF14B92846FEF7B2FE00F002F82B
:1021A00003B030BD034A5368013B53600BB904F0E0
:1021B000E7B8704768B30020082A10B50EDD102A72
:1021C0000ADC034600EB410150F8042B23F8022BF4
:1021D0008B42F9D1012010BD002010BD022A28D168
:1021E0000446036801294FEA8313DBB21ED042681C
:1021F000120102F03002022943EA020301D1083041
:1022000015E08268920002F00C02032943EA0203FF
:1022100001D10C300BE0C26802F003021343043911
:10222000103004F8013B0029DBD1D3E70430002152
:10223000F7E7042A15D104460129036818BF42684C
:102240004FEA0313DBB21BBF02F00F02134300215E
:1022500002390CBF0430083004F8013B0029EBD1EF
:10226000B8E7012A03464ED11A6801294FEAC21283
:10227000D2B245D05C68A40104F04004022942EACD
:10228000040201D108333CE09C68640104F020049E
:10229000032942EA040201D10C3332E0DC68240154
:1022A00004F01004042942EA040201D1103328E0AA
:1022B0001C69E40004F00804052942EA040201D183
:1022C00014331EE05C69A40004F00404062942EA09
:1022D000040201D1183314E09C696400073904F04A
:1022E000020442EA04021BBFDC6904F001041C334F
:1022F000224318BF203300F8012B0029B4D169E72D
:1023000004330021F7E7014450F8042B03F8012BB4
:102310009942F9D15EE70000F0B51F4DEB6F85B033
:10232000002B37D10123EB671C4B6A4603F10807EA
:102330006E4618685968144603C40833BB422246E7
:10234000F7D1186899889B79A3712060A180144CFB
:10235000334613F8012B04F8012B1A78002AF8D120
:10236000FFF7E4F810F8013B224604F8013B03783C
:10237000002BF7D1537003F0C9FFFEF767FD05F09E
:10238000E1FE084B0848C5F8943005B0BDE8F040C0
:1023900000F05ABD05B0F0BD58B20020C8110208C7
:1023A000D8B200207D5B0008ECB20020274B1B68F0
:1023B000F7B505460E4663B1002001F007FF00287F
:1023C00041D06A463146284602F038FA01F014FE40
:1023D000F5E7106851681E4C6B4603C32268BDF8D0
:1023E0000030B2F84C70B2F85000BDF80210BDF8E1
:1023F00004203B44ADF80030BDF8063001440344EE
:102400003A446846ADF80210ADF80420ADF8063045
:1024100001F0DCFE236840B9D96C5A8C521A5A84F8
:10242000196D9A8C521A9A840DE0BDF800205A84D6
:10243000BDF802209A8431466A46284602F0FEF929
:1024400001F0DAFDE6E703B0F0BD00BF10B50020F3
:10245000840100202DE9F04F8FB014461D468846B8
:102460008346189E1D9FFFF747F80B9000F01CFF56
:102470001A9B1B9A089043EA0209B9F1010F4FEA2F
:102480004403069302D0002307932EE0DFF8A8A2AE
:10249000DAF80030587CFFF77BF81C9B834249D167
:1024A0000023059363000393102302930496CDF851
:1024B0000490CDF800902B4622464146584600F045
:1024C00051FD36E11B9B43440A93013B09939A4B10
:1024D00009991B68B3F90A2091420ADA069BDDF8D4
:1024E00028801E44079B01330793079BAB42E9DB1F
:1024F0007BE0B3F90E309845F0DCD9460027A742BF
:10250000ECDA36F817A0089B9A4506D01C9B50467B
:10251000984701F0BDF8CDF820A01A9B09EB030AFB
:102520004846099B0AF1FF32414600F085FE01371B
:10253000D146E4E708EB0503DAF80020013B0793F6
:10254000B2F90A30984507DAC8EB0308610001FBCD
:102550000866C8EB05059846B2F90E300799CB1A04
:10256000002BC8BFED1A002D40F3E38004EB0B03F2
:10257000013B08930899B2F90C30CB1A002BC8BF65
:10258000E41AB2F908309B45BFBFCBEB0301641AD4
:1025900006EB41069B46002C40F3CB80674B186846
:1025A000994630BB664B9F423DD000230D93002FD0
:1025B00073D0D7F81490B9F1000F04D01A46194619
:1025C0000DA800F067FA00F077FE5B4B1B688246AF
:1025D000587CFEF7D5FFDAF800700990079B089A3F
:1025E00041465846B847002859D00B98FFF72BFDB5
:1025F0009FE0136E507C534A5BB952F82020D2689A
:10260000126872B900F044FE0F28D4BF00200120E8
:10261000C8E752F820304C481B691B1A58425841F1
:10262000C0E71846BEE70028BFD0DAF80030186EC1
:1026300038B3FEF7F7FCB0F90630D0F80CA0B0F9CB
:1026400004700EAAC3EB08080AFB08F8C7EB0B07D7
:1026500042F8040D08F1180303EB870800EB0807A4
:102660001046FEF7EDFC002F63D0069B0193CDF8DA
:1026700000A0D9F800802B46224631463846C04794
:1026800057E0587C069B02938DE830002F4B424662
:102690001C6859463346A0474BE0B94693E7069A73
:1026A0000D9B57107F00E3B964003BE05BF8040B1F
:1026B000099B984708F1010844454BF8040CF5D1F3
:1026C000DDF834B04FF000085BF82800DAF8043089
:1026D00008F1010898474445F6D1DAF808309847E0
:1026E0003E4415F1FF3509D3022322460D993046A9
:1026F000C8474FF00008DDF834B0D7E7DAF80C30FF
:10270000984772E738F8020B1C9B9847099B98473B
:10271000DAF804309847C145F4D11DB1DAF8083031
:1027200098473E4415F1FF35E8D306EB0409B0465F
:10273000E8E70FB0BDE8F08F840100200CB5002061
:10274000F419020800B50020981E020808B5002000
:102750002DE9F04F95B0A64D07929B46219A209BFC
:102760000C9043EA02082B680891587C1E9CFEF7E7
:1027700007FF2B680990587CFEF782FE1828064652
:1027800006D0082807DD1128B4BF0227042703E07C
:102790002026042700E00127B8F1010F0AD0079B8B
:1027A00023EAE37303EB43030F9300236FF07048B6
:1027B0000A9318E12B68587CFEF7EAFE00230D907F
:1027C00013AA1946184600F065F9002840F05F8109
:1027D000079BCDF8288003EB43030B938146054606
:1027E00094F800A0BAF1FF0F11D1079B0135AB425D
:1027F00008D109F10109BBF1000F00F048810BF18C
:10280000FF3B002514F8033FFF2BEED0D4E0BAF1D4
:10281000000F40F0BB800C9B229AEB180E93089B94
:102820004B440F930D9B9342139B15D198466B1C01
:102830006078A17801EB0021079828F8021B9842E4
:10284000A3EB050204F1030419466FD0207801338D
:102850000028EDD00D4676E0022F29D0042F49D074
:10286000012F6FD1079A9846C5EB020A3E46E91A36
:10287000A3786078109103EB002080B2229B9847E8
:10288000099B9847109908F8010B5645324604F108
:10289000030408EB010505D109F101090BF1FF3B28
:1028A000002503E023780136002BE1D008264AE01A
:1028B000079A521B984610922B464FF0010AA278B5
:1028C0006078119302EB0020229B80B29847099B0D
:1028D00098471099119B28F8020B52468A4504F13B
:1028E000030402EB030521D021780AF1010A002933
:1028F000E5D028E0079A521B984610922B464FF0DD
:10290000010AA2786078119302EB0020229B80B22A
:102910009847099B98471099119B48F8040B524619
:102920008A4504F1030402EB030505D109F101090D
:102930000BF1FF3B002506E021780AF1010A00298E
:10294000DFD000E0524600230593139B04930B9BBA
:1029500003930A9B01930093029601230F990E980B
:1029600000F000FB28E009F10109BBF1000F00F0C5
:102970008E800BF1FF3B002514F803AF0AF1FF3303
:10298000DBB2FD2B18D8BBF1000F15DDA378607802
:1029900003EB002080B2229B9847089903460C98CD
:1029A0006FEA0A022818D2B2494400F061FA079B84
:1029B0000135AB42E0D1D6E7BBF1000F7FF410AF99
:1029C00065E0219A089B13440D93013B0B93084B40
:1029D0000B991B68B3F90A208A420BDD0A9B01336D
:1029E0000A930D9B08930A9B5B45EADB4FE000BF0F
:1029F00084010020B3F90E30089A9A42EEDC0C9B59
:102A0000209A9E180023E71C0993209B079AF31A2B
:102A10000E93099B934237DA17F8013C17F8020C22
:102A200017F8035C03EB002080B2229B9847804597
:102A3000824601D000F02CFEFF2D1DD0B5B1ED4334
:102A4000DDF82080EDB2DDF838904E4508DD4846CF
:102A500053462A46414600F00BFA09F10109F4E712
:102A60000B9B08F101084345EDDA05E00B9B089943
:102A70000E98721E00F0E0FB099B01330993209B26
:102A800003371E44D046C0E70F9B1C44A6E715B091
:102A9000BDE8F08F2DE9F843294C1D462369064611
:102AA000884617463BB9012320462361254B40F851
:102AB000143F00F0C9F9E368DFF8849043B9224B72
:102AC0001B68C9F80C301BB900F074FCC9F80C0085
:102AD0000DB1E3682B607EB12368194D43B9E868F6
:102AE0008000FEF72FFA2860B0FA80F56D0900E04B
:102AF00000252368336000E03546B8F1000F0DD0A3
:102B000063680F4E3BB9F0688000FEF71BFA00289F
:102B1000706008BF01256368C8F8003067B1A3681A
:102B2000074E3BB9F0688000FEF70CFA0028B06051
:102B300008BF0125A3683B602846BDE8F88300BFB5
:102B400084B30020D55B0008F8B4002037B502AB91
:102B5000144A43F8081D01901268194690470190E5
:102B6000E8B1114B1B68DB695C690CB124680CB9D6
:102B7000254602E00099A04711E0009B013B002B95
:102B8000009307DB01A8FFF7BBFA0446FEF78EFCB3
:102B90000544F2E7204600F025F82844FFE703B09B
:102BA00030BD00BF880100208401002037B50D46EC
:102BB0000190044688B10A4B1B68DB695C6954B11B
:102BC000646844B1A04709E001A8FFF799FA20B171
:102BD0000A2802D00134AC42F6DB204603B030BDF7
:102BE0008401002013B502A9002441F8044DFEF72A
:102BF0006FFC019B9842B4BF181A204602B010BD6A
:102C0000B1F90030B0F900209A42B8BF0380B0F9A2
:102C10000220B1F902309A42B8BF4380B0F90420D3
:102C2000B1F904309A42C8BF8380B0F90620B1F9E7
:102C300006309A42C8BFC380704770B5B1F9003002
:102C4000B2F90050B1F904409D42B8BF1D46064696
:102C5000B1F902300580B2F902008342B8BF0346E1
:102C6000B2F9040073808442A8BF0446B2F906009A
:102C7000B1F90620B4808242A8BF0246A542F28084
:102C800004DC9342CCBF0020012070BD002070BD49
:102C9000024B1B680146587C00F002B884010020FA
:102CA0000128F7B506460C4662DC334D6B6803B16C
:102CB0009847012C04D0022C20D0002C58D133E0AE
:102CC00005EB8605AF68AFB93046FEF7E7FA01902D
:102CD00000284DD0C3680D215B6A01A898470346C0
:102CE000002845D0214601989847AB680133AB6076
:102CF00038463EE0781CA86020463AE03046FEF7B1
:102D0000CDFA0190002833D0C3680D215B6A01A879
:102D10009847044600282BD02B6803B1984702211E
:102D20000198A047002024E0B4002B199B68012BD8
:102D300001D0012015E03046FEF7B0FA01900028DE
:102D4000F7D0C3680D215B6A01A8984706460028A2
:102D5000EFD0094B1B6803B1984700210198B04799
:102D600000202544AB68002B18BF013BAB6000E09E
:102D7000012003B0F0BD00BFE0B300200B0E4FEA0E
:102D8000106308BF20F07F4130B55A43C0F30724D9
:102D9000FF23B2FBF3F29D1A44F080730C0A04F097
:102DA000FF146C4300F0FF1002FB0344424301F0A8
:102DB000FF1305FB0321090A04F0FF2401F0FF10B3
:102DC000204330BD2DE9F04F87B006469DF85030C6
:102DD0000493129B9D00109B05EB83030393002338
:102DE0000193184B0F469046139A0199914226D0B1
:102DF000DDF848900297C246B3465BF8040B029C8C
:102E000004990593020E4A43FF21B2FBF1F254F8F4
:102E1000041B0294D2B21C6840F07F40A047B9F175
:102E2000010940F07F404AF8040B059BE5D1039A65
:102E30001744019A01322E44A8440192D4E707B006
:102E4000BDE8F08F9401002080B483B000AF7860BB
:102E5000064B1A687B685A60044A7B68136000BF9F
:102E60000C37BD465DF8047B704700BFCCB2002034
:102E70002DE9F047184F3C689846B4F90A308B4268
:102E800005460E46914624DCB4F90E30994220DC0A
:102E9000B4F9083083421CDCB4F90C30984218DCD9
:102EA00000F053FA0D4B4A461C6801464046A047C5
:102EB00000F04AF83B685A7C094B53F82240E3681B
:102EC0009F693246034629462046BC46BDE8F04786
:102ED0006047BDE8F08700BF840100209401002016
:102EE00000B5002070B5840742BF02F1FF320180B7
:102EF0000230540824D0032C234601EB014502D8AC
:102F000000EB830317E000F110032646043E032E76
:102F100043F8105C43F80C5C43F8085C43F8045C2D
:102F200003F11003F2DC043CA3085E1C00EB061066
:102F3000A4EB8303E4E7984202D040F8045BFAE78D
:102F4000D30748BF018070BD044B1B685A7C044BFB
:102F500053F822301B691B68184700BF840100200A
:102F600000B500202DE9F04F8FB0DFF818E2189C73
:102F70000294DEF800E0199C08941D9E1B9C0394AB
:102F800005460091904601931A9F1C9C0496BEF141
:102F9000000F02D0DEF800407AE0029B089A13434B
:102FA000012B7AD1754B01991868009BB0F90A2062
:102FB000D31A002B07DDC91A002940F3DB80039EDA
:102FC00006FB034400E0009A9DE848001E44B0F967
:102FD0000E30013EF61A002E03DD891B002940F356
:102FE000C98005EB0803B0F90C60013B9B1BB0F9ED
:102FF0000860002BC8BFC3EB0808B54231DA731B69
:10300000082FC3EB080827D00DDC022F14D0042FA3
:103010001AD0012F26D123F0070604EBE304354430
:1030200003F007031EE0182F18D0202F16D0102F02
:1030300018D104EB430413E023F0030604EBA304CC
:10304000354403F003030DE023F0010604EB6304B1
:10305000354403F0010305E01C4401E004EB830464
:1030600035460023B8F1000F40F38480467C444885
:1030700050F82600049ED0F80CE01C93039B1A9392
:1030800018911D961B941997DEF804404346294673
:10309000A4460FB0BDE8F04F6047C7F108030B939B
:1030A000029BDFF8D8A0CDF818E0013BF3460D9362
:1030B000069B019A93425DDA009A089B1344099398
:1030C000013B0A93DAF800300A99B3F90A208A42E0
:1030D00048DCB3F90E30009A9A4243DC4FF0000905
:1030E00007942E46CDF81490059B43453ADAB9F182
:1030F000000F06D1079B93F800B0013307934FF000
:1031000008090B9B4BFA03F30BFA07F213F0FF01CC
:103110005FFA82FBC7EB090904D1DAF80020127CC0
:10312000920717D4DAF80020D26B10680C9004983C
:1031300010B150F8213000E0DBB213600D9A0A9B09
:1031400000993244304600F077F8DAF800300C9AF3
:10315000DB6B1A60059B029A0133059333461344D7
:103160001E46C1E7069B01330693039B1C44099B43
:1031700000939DE70FB0BDE8F08F00BF84010020F1
:1031800000B5002010B50020114B30B41C68B4F914
:103190000A308B420D4619DCB4F90E30994215DC29
:1031A000B4F90810B4F90C308142B8BF014693421B
:1031B000A8BF1346994209DC607C064A52F82000F9
:1031C000C26894682A46A44630BC604730BC704749
:1031D0008401002000B50020154B1B680A46B3F996
:1031E0000A10914230B4044620DCB3F90E108A4232
:1031F0001CDCB3F90810814218DCB3F90C108842CA
:1032000014DC197C587C11F0010F0A4951F8200098
:1032100004D0C3682146DB6930BC1847C168DB6B4A
:103220008D691B682146AC4630BC604730BC704796
:103230008401002000B5002073B5134C2468B4F954
:103240000850B4F90C608542B8BF05469642A8BF45
:103250001646AE4215DBB4F90A208A42B8BF0A46C8
:10326000B4F90E108B42A8BF0B469A4209DC607C71
:10327000064951F82000C16800930C69334629467D
:10328000A04702B070BD00BF8401002000B500203F
:10329000082102F041B90000024B1B689B6B1868C3
:1032A000704700BF84010020024B1B68DB6B18686D
:1032B000704700BF8401002007B50A4B1B685A7C89
:1032C000094B53F822300193DB685B6A0BB907485E
:1032D00004E0082101A898470028F8D003B05DF861
:1032E00004FB00BF8401002000B50020AC010020D9
:1032F000024B1B68587C00F003B800BF840100201B
:10330000092102F009B910B50020FDF7C7FF041C20
:103310004FF0010018BF0124FDF7C0FF00B10134D8
:10332000204610BD024B1B68587C00F003B800BF5C
:103330008401002010B5FDF7B1FF28B1C368022158
:10334000DB6ABDE81040184710BD08B500F004F86E
:10335000BDE8084000F07EB8F7B5144F144E3B6846
:103360005B7C044656F82300C3680D461B6B694618
:103370009847BDF90030A34215DCBDF904309C42EA
:1033800011DCBDF90230AB420DDCBDF906309D42C7
:1033900009DC3B685B7C56F82300C3682A465B69FE
:1033A0002146984700E0002003B0F0BD84010020D2
:1033B00000B50020032002F02CB90000014B186872
:1033C000704700BFF4B20020012002F022B90000D3
:1033D000014B5868704700BFF4B20020022002F091
:1033E00018B900F001B800002DE9F843044618B3FD
:1033F00087681FB3144D286820B32268B2F5807F18
:103400001FDC124B1B689A42A8BF1A469046002642
:10341000464509DA57F82600D5F80090FFF794FDE5
:1034200049F826000136F3E7094B1B680BB120462B
:1034300098472868BDE8F883BDE8F8833846BDE8BA
:10344000F8830020BDE8F88320B50020A801002003
:10345000A4B30020044B1B685A7C044B53F8223061
:103460001B695B68184700BF8401002000B500207D
:10347000084AC0F3842300F01F01C0F34410D35C5A
:10348000515C105C03EB014303EB002040F07F40F4
:10349000704700BF5C1D020800F01F01074AC0F31F
:1034A000C423C0F34510D35C525C03EB0243044ACF
:1034B000105C03EB002040F07F4070475C1D020869
:1034C0001C1D0208084AC0F34413D15CC0F38423D6
:1034D00000F01F00D35C105C1B0403EB01231844B5
:1034E00040F07F40704700BF5C1D0208C0F34513E9
:1034F000074AD15C074AC0F3C42300F01F00D35C25
:10350000105C1B0403EB0123184440F07F4070471C
:103510001C1D02085C1D02087047000038B50A4DEA
:103520002C6864B9094B18688000FDF70BFD286012
:1035300038B10748074B40F8043FFFF785FC0020EF
:1035400038BD012038BD00BF20B50020A8010020F3
:10355000A4B30020FD5B00082DE9F74FFFF7D3FE71
:103560001C4EDFF878A080460024B14644452DDA91
:103570002046FDF793FE38B33368204693F811B028
:103580005C74FFF785FE082804DDD9F8003083F865
:1035900011B019E05AF824301A690F4B9A42F4D04E
:1035A0002046FFF7ADFE002503469D42EDDAEFB25F
:1035B00038460193FFF74EFF39460246204600F099
:1035C00085F80135019BF0E70134CFE703B0BDE892
:1035D000F08F00BF84010020B01E020800B500205B
:1035E00010B50D4B1A68517C0C4A52F821001C464C
:1035F00040B1C36813B11B68042B01D00068F7E722
:10360000FDF732FE236800221A6603F108025A61B0
:10361000BDE8104000F02EB88401002000B5002065
:10362000014B1B685B681847A4010020044B1B6812
:103630001A7C52074CBFDB6B9B6B1860704700BF56
:103640008401002037B5094C23685A7C084B054695
:1036500053F82200C36869461B6B984720686A4686
:1036600029460830FFF7E9FA03B030BD8401002095
:1036700000B50020044B1968044B4A7C53F8220023
:10368000C36808311B6B18478401002000B5002077
:10369000014B1B681B681847A4010020044B1B68E2
:1036A0001A7C52074CBF9B6BDB6B1860704700BFE6
:1036B00084010020014B83E803007047F4B200202E
:1036C000014B1B689B681847A401002037B50C46C6
:1036D0001546FDF7E3FD019008B901200CE0C36831
:1036E00010215B6A01A8984703460028F5D001988D
:1036F0002A4621469847002003B030BD37B50C4616
:103700001546FDF7CBFD019008B901200CE0C36818
:103710000B215B6A01A8984703460028F5D0019861
:103720002A4621469847002003B030BD37B50C46E5
:103730001546FDF7B3FD019008B901200CE0C36800
:103740000A215B6A01A8984703460028F5D0019832
:103750002A4621469847002003B030BD10B5074CDB
:103760002368186BFFF7F0FBFFF798FF2368586B8F
:10377000FFF7EAFBBDE81040FFF758BF84010020C7
:103780002DE9F04F8FB0DFF8CCE1189D0295DEF8FF
:1037900000E0199D08951B9D039507900C46174660
:1037A0000193DDF868A01C9EDDF874B01E9DBEF18B
:1037B000000F02D0DEF8004054E0029B089A134349
:1037C000012B54D1614B1868B0F90A20531A002B11
:1037D0000ADD0199C3EB010EBEF1000F40F3B28088
:1037E000039901FB036602E0DDF804E00A46019B51
:1037F0001C44B0F90E30013CE41A002C05DDC4EB8A
:103800000E0EBEF1000F40F39D80079BB0F90C1027
:103810003B44013B5B1A002BC8BFFF1A079B591B97
:10382000B0F90830994209DA5B1A1D44FF1A23F0F7
:10383000070306EBE506194405F00705002F40F3E2
:103840008180407C424B039C53F82000C368CDF834
:1038500074B01C951B961A94CDF864A0CDF860E066
:103860005C683B46A4460FB0BDE8F04F6047CAF124
:1038700008030B93029BDFF8D490CDF814E0013BD2
:1038800075460D93059B019A93425BDA089BE318FA
:103890000993013B0A93D9F800300A99B3F90A2039
:1038A0008A4248DCB3F90E309C4244DC079B069602
:1038B0004FF000080093CDF81080049BBB423ADA29
:1038C000B8F1000F05D1069B1D78013306934FF028
:1038D00008080B9B45FA03F313F0FF0105FA0AF5FC
:1038E000EDB2CAEB080804D1D9F80020127C920787
:1038F00019D4D9F80020D26B10680C90BBF1000FDE
:1039000002D05BF8213000E0DBB2136000990D9A21
:103910000A9B00980A442146FFF78EFCD9F8003034
:103920000C9ADB6B1A60049B029A01330493009B90
:1039300013440093C1E7059B099C01330593039B46
:103940001E449FE70FB0BDE8F08F00BF8401002048
:1039500000B5002010B5002000283BD030F0010356
:1039600029D030F0030328D030F0070327D030F0FF
:103970000F0326D030F01F0325D030F0FF0324D0F2
:1039800020F4FF7323F001030BB320F47F6323F0D3
:103990000F03E3B120F4FF4323F07F03BBB1030C1B
:1039A0001B04A3B1830C9B049BB110F07F4F0CBF91
:1039B0001820202070470120704702207047032004
:1039C000704704207047052070470820704710207A
:1039D00070471220704708B5FFF7BEFF01280FD0CF
:1039E000831E062B09D9A0F10903072B07D911382B
:1039F0000F288CBF0020202008BD082008BD102003
:103A000008BD0000024B1B68012283F85420704758
:103A1000840100202DE9F043044687B0FDF74EFEF7
:103A2000002C3AD02046FDF7FDFA0346019003C86A
:103A300004AD85E8030001A81E6AD3F82890FDF7BD
:103A4000FFFA204600F09AFB074630B3204600F00C
:103A50001AF919F0020F804604D001463246284672
:103A600000F0F1FC2046FDF7DDFA01904046FDF73D
:103A7000D9FA03903846FDF7D5FA039B019AD96924
:103A800006620290116201A8DC61FDF7D9FA03A871
:103A9000FDF7D6FA02A8FDF7D3FAFEF783FB07B0CD
:103AA000BDE8F0832DE9F74FDDF830A098460546D4
:103AB0000E461746FDF702FE4D4BD3F80090BAF1C3
:103AC000000F28D14B4B1B8853B34B4B1B685A7CC0
:103AD0004A4B53F822305A1C012A21D99A465046A3
:103AE000FDF7A0FAB0F90010B0F9022001900D44E2
:103AF00016441FB9B0F904305F1A0137B8F1000F4E
:103B000005D1B0F90630C2EB030808F1010801A89D
:103B1000FDF796FA04E0BAF1FF3FE0D14FF0000A5A
:103B20000F982C30FDF7C6F90446002859D0314AC9
:103B30000D9B49EA0309138801331380FDF772FADC
:103B40000E9B03610DF1080B2D4B826A4BF8080D9B
:103B500009EA0303058046803D4446441343013D82
:103B6000013E83628580C6805846FDF769FA254B81
:103B7000186848B1FDF77CFA05462046FDF778FA4B
:103B80006B6943616C6100E01C605146204600F0A7
:103B90009DFB19F0200F02D0204600F06FF919F0BC
:103BA000010F1FBF184A13680133136019F0400F4B
:103BB00002D02046FFF72EFF19F0020F0DD020464D
:103BC000FDF730FA836A009043F00203836258469F
:103BD000FDF736FA204600F01CF90121204600F0DE
:103BE0006FFCFEF7DFFA204603B0BDE8F08F00BFA0
:103BF0002CF500203AF500208401002088F50020F3
:103C00009F3F3F0030F5002044F5002010B50446EA
:103C100040682368172B10D007DC0E2B0FD0142B15
:103C200015D1E16800F0C2F911E0222B0CD0282B4D
:103C30000DD1BDE8104000F0ECB8E06010BD2146A9
:103C4000BDE8104000F03EB96FF0704300E0002383
:103C5000E36010BD034B1B685A7C034B53F82200F2
:103C6000704700BF8401002088F5002010B504468D
:103C700038B1FDF723FD2046FDF7FAF9C469FEF7D8
:103C800091FA204610BD10B5044638B1FDF716FD77
:103C90002046FDF7EDF98469FEF784FA204610BD51
:103CA0002DE9FF412A4D287800284DD1294B2A4E75
:103CB00018602A4B2A4F1B68DFF8D0805864294BC4
:103CC000A8601880284B044618802046FDF7E6FAC5
:103CD000A8B14FF0FF32022300218DE80C0043F61B
:103CE000FF731A46039102960846FFF7DBFE6FF05A
:103CF000704347F8240048F8243000F08AF8013473
:103D0000022CE2D1194800F015F9194800F012F917
:103D1000184800F00FF9184800F00CF9174800F0A7
:103D200009F9174800F006F90D4B186800F0A6F8DD
:103D3000FFF768FE01232B701248134B6B6204B02F
:103D4000BDE8F041FFF780B804B0BDE8F08100BFE6
:103D5000B0B3002030F500205D5F00088401002032
:103D600088F5002038F500203AF5002060F50020A5
:103D700050F5002070F5002068F5002058F500206F
:103D800078F50020D4B30020195C000848F5002025
:103D9000F0B50F4687B00546002838D0FDF78EFCF9
:103DA0002846FDF73FF9866A0190B2072AD503C875
:103DB00004ACF30384E8030002D5284600F0E0FADF
:103DC0005FB13868796802AB03C302A9019800F0BB
:103DD000B9F802A92046FEF713FF2946204600F055
:103DE000B9F878B140F601033340012B06D1019BAD
:103DF00020461A6A996900F026FB03E0214628460E
:103E000000F0BAFA01A8FDF71BF9FEF7CBF907B0ED
:103E1000F0BD0021FFF7BCBFF0B50F4685B01546D9
:103E2000064648B3FDF7FEF8836A04AC9B070246DA
:103E300044F80C0D03D42046FDF702F91CE0394686
:103E400002A8FEF7FAFE0028F5D02046FDF7F8F8A4
:103E50002A4602A9304601F015FD3046FFF706FF5D
:103E600004464CB120462A4602A9FFF7D5FF20465A
:103E7000FDF7FEF8046AF4E705B0F0BD70B504463E
:103E8000FDF71CFC0D4B1A681D46966C0CB90C4BCB
:103E90001C689464204600F0EAFAFFF7EBFB20462A
:103EA000FDF7E6F82B68B0F90020DA64B0F90220DB
:103EB0001A65FEF777F9304670BD00BF8401002017
:103EC00030F5002038B505460C4669B1FDF7F6FB24
:103ED0002846FFF7D8FE18B1A560214600F0D2FAB7
:103EE000BDE83840FEF75EB938BD00001FB50E4B87
:103EF0001B6893F854200AB10C4811E0986CFDF748
:103F000091F8019003C802AC84E8030001A8FDF712
:103F100097F8074B196811B1204600F01BF82046AE
:103F200001F058FF04B010BD84010020C4B300208C
:103F300098F50020024B1A6802601860704700BFB5
:103F4000A4F5002003460846B3F90220B3F9001097
:103F5000FEF717B873B506460D462846FDF762F81A
:103F6000836A019013F00204014604D101A8FDF711
:103F700067F8204616E03046FEF742FE019B9C693A
:103F800001A854B9FDF75CF8074B1A68954208D0B0
:103F90005868431B5842584104E0FDF751F8254644
:103FA000DBE7012002B070BD88F5002037B50D4673
:103FB00058B151B1FDF736F802AC294644F8040D6A
:103FC00000F005F82046FDF73BF803B030BD0023B4
:103FD0000B8002884B8083889B1A8B804288C38821
:103FE0009B1ACB80704708B5FFF74DFE18B1FDF75F
:103FF0003FF8C06908BD08BD2DE9FF415D4F3B6832
:1040000093F85400002800F0B1805B4A136A012B3A
:10401000144603DD013B13620020A7E002F1140601
:10402000D36996E80300013302ADD36185E803004C
:1040300023B99389ADF80830D38910E0138BD28A65
:10404000ADF80A200133B4F910201BB29A42ADF842
:10405000083006DAA389ADF80830638B0133ADF878
:104060000A30BDF90A20B4F91230DFF80C819A4207
:1040700004DD236A013B0020236277E03B68986CF3
:10408000FCF7D0FFBDF90820B8F90C3001909A4236
:104090001CD1B8F81230ADF80E30B8F81030ADF8C9
:1040A0000C30344B1B689A6C5AB11046FCF7E0FF99
:1040B000804600222946006A01F0C6F9D8F8182087
:1040C000F2E7019B2946D86901F0BEF9BDF8083036
:1040D000ADF80C303B689A6C6AB11046FCF7C8FF2B
:1040E000002280462946006A01F032F90028EDD10D
:1040F000D8F81820F0E7019B2946D86901F028F983
:104100000028E3D1B4F91030BDF90820ADF80C3027
:104110009A4207DD95E8030086E8030001A8FCF752
:104120008FFF97E73B689A6C52B11046FCF7A0FFEF
:10413000074600222946006A01F04DF9BA69F3E703
:1041400004AF294657F80C3DD86901F044F93846C8
:10415000FCF776FFE26944F620639A4289DC95E831
:10416000030086E80300FFF7C1FE012004B0BDE8AC
:10417000F08100BF84010020B0B3002038B50546AF
:10418000FFF731FF044654B1AC4207D02046FCF79C
:104190006FFF036A9D4202D01C46F4E700242046CC
:1041A00038BD000010B50446FCF762FF80690028A6
:1041B000F9D1054B1A68944205D0586884420CBF67
:1041C00001204FF0FF3010BD88F500202DE9F041AF
:1041D000394E326892F8543086B0804613B9FFF7F2
:1041E00085FE64E0354F3B6A0133012B3B623D465F
:1041F0005DDC906CFCF716FF4FF0FF33FB61304B3A
:1042000000901B7813B102AB083004E0836A13F00E
:1042100002040CD002AB03C802AC83E80300B8F17F
:10422000000F0CD041462046FEF7EAFC07E03B6A4F
:104230006846013B3B62FCF703FF204638E03368E9
:10424000204F5A6CC2B1009B10685168019304ABB7
:1042500003C33B6833B101A8FCF7F2FE3868FCF7F2
:10426000E1FE019004A90198FFF76CFE204604A925
:10427000FEF7C6FC01A800E06846FCF7E1FE3968DD
:1042800019B12046FFF766FE28B133682046996CC5
:10429000FFF760FE18B92B6A013B2B6208E094E837
:1042A0000300094B83E80300FFF7A6FE00E00120AE
:1042B00006B0BDE8F08100BF84010020B0B300204B
:1042C0003CF5002098F50020BCB300202DE9FF410B
:1042D00006460C4600294CD0FCF7A4FE002384615E
:1042E000019003622046FCF79DFE04ACC76944F8C8
:1042F000080D2FB9C66101A8FCF7A2FE204636E0E2
:10430000019B38469D6AFCF78DFE0DF1100805F003
:10431000080548F8040D75B9836A1A070BD5019B87
:104320001F62029B01A8DE61FCF78AFE2046FCF7B3
:1043300087FE40461BE02046FCF782FE4046FCF725
:104340007FFE3846FCF794FE0390039B1C6A0CB971
:104350001E620BE02046FCF78BFE002DF4D1836A31
:104360001B07F1D5039B1E62019B1C6201A8FCF791
:1043700067FE04B0BDE8F081202201F083BA00009E
:1043800013B5044600B3FCF74DFE836A01909B070A
:1043900017D5406A40B10D4B1B689C4204D0FDF715
:1043A000C9F9019B00225A622046FFF75FFC0446D0
:1043B0003CB12046FFF7E4FF2046FCF759FE046AB3
:1043C000F6E701A8FCF73CFE02B010BD9CF500200A
:1043D0002DE9FF41804617461D460C4681B308462D
:1043E000FCF720FE866A0190B307024625D54146B8
:1043F00002A8FEF722FC00B340F601033340012B74
:1044000007D101992B460A6A896902A8FFF7E0FFE4
:1044100004E02A4602A9204601F034FA019BDC6937
:104420005CB1BC4209D020462A4602A9FFF7F4FC41
:104430002046FCF71DFE046AF2E701A8FCF700FE27
:1044400004B0BDE8F0812023FFF7C2BFB0F900201F
:10445000B0F904309A4208DCB0F90230B0F9060035
:104460008342CCBF0020012070470020704708B570
:10447000FFF798FE002803DBBDE80840FDF7BCBD50
:1044800008BD000070B50D4C2368132B06460D4681
:1044900012DCFCF7EDFD02696E6042B1236828462C
:1044A0000133236090472368013B236070BD284699
:1044B000BDE87040FFF7AABB70BD00BF28B4002064
:1044C0001FB504AB019043F8101D1946FFF7DAFF42
:1044D00005B05DF804FB0000F8B5274EF368B26B39
:1044E000013B05461344081883420C4605D34B593B
:1044F0001BB943681D4401F0EFFBB36B9C420AD922
:1045000054F8047CE71B3B682BB97B6838461D4494
:1045100001F0E2FB3C460F2306EBC302126C95420E
:1045200003D213F1FF33F7D223E00F2B21D8083346
:1045300006EBC30260195168A160002284E82400E0
:10454000246140F8045C04F1080001B1486006EB06
:10455000C303A160E260586033680749EA1896F81F
:10456000293032602BB9CB689B1A8A68934288BF86
:104570008B602846F8BD00BF2CB400202DE9F8431D
:10458000394E044601F04AF9356C3368AC4224BF19
:10459000033424F003050C35AB42334C3ED3236B7C
:1045A00062689A420FD97368776A013B7360736BD4
:1045B0004FEAC70803EB080252687262012203F84F
:1045C000372057B92AE0013B236300F019FE236B23
:1045D000013323630028E6D020E00F2306EBC3025B
:1045E000126C95420CD213F1FF33F7D208E09468B5
:1045F0002CB16268954214D9A268002AF7D1013320
:104600000F2B03D806EBC302526CF6E7284601F0E5
:1046100083FB0028E1D0384601F04CFB0020BDE8C8
:10462000F883D4F80490336CC5EB09020C332046B0
:104630009A4238BF4D4601F04FFB736B61199844A5
:104640004D454FF00003C8F8044027606560A36043
:10465000246141F8045C03DAC5EB0900FFF73CFF75
:104660003846BDE8F88300BF2CB400200120704715
:10467000F0B50B4E0B4F50F8045BC5F307445FFADF
:1046800085FEC5F30725345D16F80EE07D5D04EB6D
:10469000CE2404EB4514013A0C801944EBD1F0BD53
:1046A0001C1B02081C1A0208F0B5DFF850E0DEF807
:1046B00000E006460D4614461F46BEF1000F03D02B
:1046C000F446BDE8F0406047DFF834E00A4956F8A8
:1046D000042BC2F30723013C1EF80300C2F3074377
:1046E000D2B2CB5C8A5C4FEAC32303EB4013134482
:1046F0002B803D44EBD1F0BD1C1B020800B3002011
:104700001C1A020810B550F8044B0C60013A194409
:10471000F9D110BD2DE9F8438146FEF7E9FD0746C2
:10472000FEF700FE0646E0B1002056F820304B456B
:1047300017D001308742F8DC00246FF07F4825460F
:1047400056F825104846FCF79DFC804588BF2C464E
:1047500005F1010588BF8046AF42F1DC2046BDE887
:10476000F883BDE8F8830000C1B2074AC0F30743ED
:10477000C0F30720D35C525C03EBC223034A105CF6
:1047800003EB4010704700BF1C1B02081C1A0208F4
:10479000C0F30723064AD15C064AC0F30743C0B200
:1047A000D35C105CDB0203EB41131844704700BF7D
:1047B0001C1A02081C1B020870472DE9F84FDDF88F
:1047C00028B0DDF82CA081460D4616461F4614463B
:1047D000884639F8020BD847D047013C48F8040B0B
:1047E000F7D11F2F06D83A4631462846BDE8F84F84
:1047F000FDF7E2BCBDE8F88F2DE9F84FDDF828B0F1
:10480000DDF82CA080460D4616461F468946044614
:1048100014F8010BD847D047331B18EB030F49F8A6
:10482000040BF5D11F2F06D83A4631462846BDE87D
:10483000F84FFDF7C1BCBDE8F88F000073B502ABBF
:10484000154643F8081D204A0190194612681F4C6E
:10485000904723680190586940B90120FEF718FA83
:104860002268D3695B693BB9194D22E02946FDF7FF
:1048700098FB0028F1D124E0164C9B68216841B1D7
:10488000B2F9225001980099984723682846984722
:1048900014E000990198984710E001A8FDF730FC5A
:1048A0002368DB691B68064698472B680BB13046C6
:1048B0009847009B013B002B0093EEDA0020FEF7A7
:1048C000E7F902B070BD00BF88010020840100201C
:1048D0001CB5002018B5002070B504464D1E10D43C
:1048E0002078030608D56378A61C43EA00208D1EB5
:1048F0003446FCF78DF802E00134FCF789F82946CC
:10490000ECE770BD10B586B0074C0594074C0494D5
:104910000B9C03940A9C0294099C0194089C0094AB
:10492000FDF798FD06B010BDA811020899340008E3
:104930002DE9F04F994D91B00E4602932B680A90E5
:10494000186E05921D9CFCF76DFB0E90406908B136
:10495000FCF768FB0F9010A850F8083DDB68069341
:10496000FCF76EFB1E9B0F9806EB030B50B12B68F8
:104970001B7C990706D11A9B0093059A029B594606
:10498000FDF7E4FB0599584601F09CFA1B9B102BA0
:10499000054634D10F9B33B1029BDFF808924FEAF2
:1049A0004308002612E07E4B1E68002EF4D01C9BAC
:1049B0000193069B0093029A1A9B2146B04752E34B
:1049C00044B91C9B1C44069B01361D441A9B9E4205
:1049D000F6DB43E3002DF4D00F9FD9F800304246B8
:1049E000214628469847002FEBD0BB68059AD3F89C
:1049F00004A0029B324459463846D047E1E71B9B4E
:104A0000172B44DD6FF0030303FB0BF307936FF0E9
:104A1000010303FB0BF30493029B5B444FF000087C
:104A200008931A9B984580F21983059B03EB0809AC
:104A300034B91C9B1C44069B08F101081D44F0E797
:104A4000002DF6D00F9F37B1BB684A465E68029BC7
:104A500059463846B047079B04EB030A049BEB1802
:104A600003935E460A9B5AF826001B691B68984709
:104A7000039B23F816002FB1BB684A461B683146DA
:104A800038469847089B01369E42EBD1D1E71B9BE5
:104A9000082B40F08980029B059EDFF800915B00A7
:104AA00007936FF0010303FB0BF30393029B5B443B
:104AB000013C0493059B1A9AF31A9A4204F10101EE
:104AC00040F3CC821F9B002B36D0D9F800301B7CE2
:104AD00013F0030309D0022B5AD1039BDDF83C806D
:104AE000EB180893A2465F4621E0079B2246E9188F
:104AF0002B4612F8010F1F9F57F8200023F8020BD6
:104B00008B42F6D144E01F9A52F82330089A22F8DB
:104B10001730B8F1000F06D0D8F8083032461B68BD
:104B2000394640469847049B0137BB4230D01AF8BB
:104B3000013F002BF7D0E6E7D9F800301B7C13F0DB
:104B4000030309D0022B23D1039BDDF83C80EB1833
:104B50000893A2465F4616E0124B029A1B6828464D
:104B6000984715E0089A22F81730B8F1000F06D0E0
:104B7000D8F8083032461B68394640469847049BAF
:104B800001379F4204D01AF8013F002BF7D0E9E724
:104B9000069B1D441C9B01361C448BE784010020AE
:104BA000FCB200209C010020AD4B1F9A002A08BFD8
:104BB0001A461E9B1F925B000B931E9B9B000C933F
:104BC000631C0393831C0793059B0493079B059A1F
:104BD0009C1E039B03F1FF3A049B9B1A1A9A9A426C
:104BE00040F33C821B9B022B00F0C580042B00F09D
:104BF0006081012B40F026829A4B1B68186EFCF7EF
:104C000011FA1E9B984A0E90C3F10805039BDDF82C
:104C10003C9013F8013C029FD65C1E9B1E41914BB9
:104C20001B681B7C03F00303022B1FD0032B57D000
:104C3000012B55D0BD4228BF3D467F1B2B46224647
:104C400006F001011F98013B50F8211022F8021BC9
:104C50004FEA5606F4D104EB4504002F00F087809C
:104C60001AF8013F804A0825D65CE3E71F9B9B8822
:104C70000893D846BD4228BF3D467F1BB9F1000FBF
:104C800022D01EB904EB4504A84421E0F20709D55F
:104C9000D9F80830049A1B68414648469847BDF841
:104CA00020302380013D08F1010804F102040FD0F7
:104CB0007608E6E7F30744BFBDF820302380013DC6
:104CC00004F1020404D07608002EF3D104EB45046D
:104CD000002F4CD01AF8013F634A0825D65CC9E77B
:104CE0000A9B1B699B68984783B20993039B0893AF
:104CF000D846BD4228BF3D467F1BB9F1000F1CD0EE
:104D000008EB0503A2460D93F0070CD5D9F808303F
:104D1000049A1B68414648469847BAF80030099AF9
:104D20005340AAF800300D9B08F1010898450AF19C
:104D3000020A4FEA5606E7D10DE02A462346F1075C
:104D400041BF1988099841401980013A03F10203D3
:104D50004FEA5606F3D104EB450447B1089B424A9B
:104D60001B78D65C089B013308930825C1E70EA881
:104D7000FCF766F966E11E9BC3F10405039B13F87B
:104D8000016C0B9B9E40374B1B681B7C03F003039D
:104D9000012BEDB2F6B209D00AD3022B40F05281BA
:104DA0000F9B0893DDF808805F4636E0029B79E0B0
:104DB000029B9D42C8BFDDB25B1B2A462146B0095B
:104DC0001F9F013A57F8200021F8020BB60012F09D
:104DD000FF02F6B2F3D1013DEDB2013504EB45041B
:104DE000002B00F02F811AF8016F0425E1E716F07F
:104DF000C00F24D10D9B09F10109B6009945F6B207
:104E0000F5D16B1C013704EB43042F44B8F1000FBC
:104E100000F018811AF8016F04254545C8BF5FFAF4
:104E200088F5C5EB0808013DEDB27B1C2B440D93C2
:104E30006FF0010303FB07430993B946D7E71F9AB5
:104E4000B30952F82330099A22F81930089B002B35
:104E5000D0D09B68049A1B68089849469847C9E7D0
:104E6000B419020884010020981D020816F0C00F32
:104E700018BF088802F1FF321CBF80F0FF000880D5
:104E8000B60012F0FF0201F10201F6B2EED1013DCF
:104E9000EDB2013504EB4504002B00F0D3801AF885
:104EA000016F04259D42C8BFDDB25B1B2A46214627
:104EB000DCE7039B0C9A13F8013C93406B4A1268A1
:104EC000127C02F00302012ADDB203D008D3022AC9
:104ED0003BD0B7E01E9B029AC3F10203DBB2AAE00B
:104EE0001E9B5BB12D091F9B039A53F8253023802D
:104EF000029B079C1578013B924600E0029B012B28
:104F00001ADD5910221D03F001030AEB01001F9F57
:104F10002E0905F00F0557F8266057F8255022F89E
:104F2000046C22F8025C1AF8015F82453E4602F1E9
:104F30000402ECD104EB8104002B00F083802D09E6
:104F40001F9B53F8253023807CE01E9A0F9EC2B130
:104F500013F0F00F0BD02D091F9B53F82530238041
:104F60002EB1B368049A1B68594630469847029B95
:104F7000079C03F1FF38039B0BF101071D789A464C
:104F80000FE0DDF808805F460BE015F0F00F0CD164
:104F900015F00F0517D11AF8015F04340237A8F194
:104FA0000208B8F1010FF0DC1AE02B091F9A52F841
:104FB00023302380002EEBD0B368049A1B68394657
:104FC00030469847E4E71F9B53F825306380002E56
:104FD000E1D0B368049A1B68791C30469847DAE739
:104FE000B8F1000F2ED02D092CD01F9B53F825307F
:104FF00023803EB3B368049A1B683946304698470D
:1050000020E015F0C00F18BF068801F1FF311CBF6A
:1050100086F0FF0606802D0111F0FF0100F102006D
:10502000EDB2EED1013BDBB2013304EB43044AB1F4
:105030001AF8015F02239342C8BFD3B2D21A1946AD
:105040002046DEE7049B1C9A01330493039B134420
:105050000393069A079B13440793B7E50F9B13B17D
:105060000FA8FBF7EDFF11B0BDE8F08F8401002021
:1050700010B586B0064C04940B9C03940A9C0294D1
:10508000099C0194089C0094FDF762FB06B010BDDA
:105090007134000810B586B0064C04940B9C039440
:1050A0000A9C0294099C0194089C0094FDF750FB13
:1050B00006B010BD9934000810B586B0064C0494B3
:1050C0000B9C03940A9C0294099C0194089C0094F4
:1050D000FDF73EFB06B010BDC534000810B586B024
:1050E000064C04940B9C03940A9C0294099C019422
:1050F000089C0094FDF72CFB06B010BDED340008B1
:1051000010B586B0074C0594074C04940B9C03948F
:105110000A9C0294099C0194089C0094FDF79AF95A
:1051200006B010BDF4190208ED34000807B500926E
:1051300000F0B4F803B05DF804FB00002DE9F7437C
:105140002C4C1E4623688046186E0F461546FBF70A
:1051500069FF00904069A14608B1FBF763FF019029
:105160002946384600F0AEFED9F800301A7CD20746
:1051700004461FD5D8F810309B6898471FFA80F86E
:10518000019820B183682A461B68394698472388CE
:1051900088EA03032380009B0135DB68B5421C4489
:1051A000EEDD6846FBF74CFF019B03B301A8FBF75C
:1051B00047FF1CE0DB6B009AD3F80090019BD2F80C
:1051C0000C8063B1019883682A461B683946013513
:1051D0009847AE42A4F800904444F3DAE1E7751B27
:1051E0000135013DA4F800904444FAD1D9E703B059
:1051F000BDE8F083840100200170012070470000A9
:105200002DE9F041224CE36A3BB9224B9D685B6873
:105210000835B3FBF5F5023503E023691D1D05EBE9
:10522000D305E800FFF7AAF9804660B3616B2269F5
:10523000E76A01EBC003D2005E68174B08361B68B3
:105240003046984722696663C4F82C801346691E6D
:105250008B4205D2013306EBC30040F8043CF7E76C
:1052600006EBC3064FF00008C6F80480636862626C
:105270009B1A2B446360256138463FB1FBF740FE23
:105280004046BDE8F0810120BDE8F081BDE8F08135
:105290002CB4002044B200209C0100202DE9F04FE6
:1052A0002A4F1D463B681446DA6B87B0126802929B
:1052B0008346186E8946FBF7B5FE214604904846A2
:1052C00000F000FE049A06465069D3680393C9EBC8
:1052D000050505F1010A88B1FBF7A4FE109B0DF14D
:1052E00018081B1B48F8040D01330093224653464F
:1052F0004946FCF72BFF4046FBF7A2FEBDF80880AD
:105300006D00109B9C421ADC3B681B7CDB070DD5B3
:10531000DBF810309B689847B31E80B2711933F8E0
:10532000022F42408B421A80F9D104E05246414696
:105330003046FDF7D7FD039B01341E44E1E704A886
:10534000FBF77EFE07B0BDE8F08F00BF84010020B0
:105350002DE9FF4106460F469046002502AC002E7F
:1053600035D03046FBF75EFE866A0190B2070146F3
:1053700027D5B8F1000F04D042462046FDF75DFC6A
:1053800002E003C884E8030021463846FCF709FE22
:10539000B8B1F30705D4BDF80C3001333B800125CB
:1053A0000FE0019BDE6966B1224639463046FFF7C1
:1053B000CFFF0028304618BF0125FBF759FE066ACB
:1053C000F1E7019B01A81E6AFBF73AFEC7E72846F2
:1053D00004B0BDE8F081F0B585B005460E4617462D
:1053E00002AC7DB32846FBF71DFE856A0190AA0733
:1053F000014621D527B13A462046FDF71EFC02E0C2
:1054000003C884E8030021463046FCF7CAFD98B182
:10541000EB0704D4BDF80830013BB3800CE0019BDE
:10542000DD694DB1284622463146FFF7D4FF2846B4
:10543000FBF71EFE056AF4E7019B01A81D6AFBF756
:10544000FFFDCEE705B0F0BDF0B585B007460C46D0
:10545000164602AD002F48D03846FBF7E3FD876AB9
:105460000190BB0701463AD526B132462846FDF7E2
:10547000E4FB02E003C885E8030029462046FCF768
:1054800090FD60B317F0010F019B1CD13EB1B3F941
:105490000220B6F902309342B8BF134601E0B3F9D7
:1054A0000230B4F902209342B4F9062005DDBDF9BB
:1054B0000A309A4213DB013B03E0BDF90E309A42F9
:1054C0000DDDE3800BE0DF694FB138462A46214607
:1054D000FFF7BAFF3846FBF7CBFD076AF4E7019BFD
:1054E00001A81F6AFBF7ACFDB4E705B0F0BD00787A
:1054F00070470120704700000129024818BF0020B2
:10550000704700BF801902081629024818BF002002
:10551000704700BFE1170008012810B50C4608DCF1
:10552000FBF7BCFE28B1C36821469B6ABDE810406A
:105530001847002010BD082904D0006820B1C368B6
:105540009B6A1847102070474FF0FF30704708B52E
:10555000FDF7CEFEB0F5807F10D07F2810D83F2811
:1055600010D81F2810D80F2810D8072810D80328C3
:1055700010D8012894BF002001200CE008200AE088
:10558000072008E0062006E0052004E0042002E0F1
:10559000032000E00220012303FA00F0013808BDD7
:1055A0004FF6FF7070474FF6FF7070474FF0FF30B7
:1055B0007047F8B50E460446B0B100252078A0B17A
:1055C000002E12DB030609D5637843EA0020FBF7BF
:1055D0006DFFA71C023E05443C46EFE7FBF766FF64
:1055E0000134013E0544E9E705462846F8BD00239D
:1055F000027862B18B420ADA12F0800F02D00133D6
:10560000023002E00A2A02D001300133F0E71846E6
:10561000704738B5014605460120FFF77DFF294652
:1056200004460020FFF778FFA042B8BF204620EADA
:10563000E07038BD08B50846114600F043FC00880C
:1056400008BD37B580680D46FBF7ECFC024602A8A2
:10565000B2F904301489B2F906102B801C44538926
:1056600040F8042D0B44013B013C6980AC80EB8089
:10567000FBF7E6FC03B030BDF8B50C4D0C4E002432
:105680007C272B689C420DDA00F050FE07FB04F3E8
:105690003268D118D358984206D00BB9086003E09D
:1056A0000134EEE70020F8BD2046F8BD8C01002053
:1056B00068B30020F0B5541E03FB040002F18044DF
:1056C000013C0E4E0E4F01EB8401058805F01F04CE
:1056D000013A16F804E04FEAD524C5F34515345DC8
:1056E0007D5D04EB0E4404EB052444F07F4441F857
:1056F0000449A0EB0300E8D1F0BD00BF5C1D020827
:105700001C1D0208F0B5164E766886460F461446F4
:105710001D461EB1B446BDE8F040604702F180412D
:105720000139501E07EB81010E4E0F4F03FB00E0C5
:105730000288D30A013C16F803E002F01F03C2F30B
:105740004512F35CBA5C03EB0E4303EB022343F018
:105750007F4341F80439A0EB0500E9D1F0BD00BF5B
:1057600000B300205C1D02081C1D020810B504686F
:1057700041F8044B013A1844F9D110BD38B504463C
:10578000FDF7B6FD0546FDF7CDFDA54203D918B1DD
:1057900050F8240038BD002038BD000038B5194D40
:1057A000194B03672B691A1DDA6303F108029B6327
:1057B0001B6442615A7C154B044653F82200C368AF
:1057C00004F108011B6B9847114B63666B68E3613A
:1057D0002B690833636101232376E376FEF73AFAF7
:1057E000032384F868306FF0704323636363A0641D
:1057F000E868FDF715FFA868FDF74AFF054B064A64
:105800001A6038BD74010020D8B2002000B5002015
:10581000C011020814B500200C1A020870B5174A0E
:1058200092F8283043BB012382F82830144B996842
:1058300011B95968890899605A211162102600210E
:1058400002EBC10006FA01F5013110290B4C056489
:10585000F6D158681968A16302232361A0F11403EB
:105860000B4401256363E0605D6065626560FEF77F
:1058700033FEFFF7C5FC256370BD00BF2CB40020CC
:1058800044B20020F0B585B00D4606461746FBF73A
:10589000EFFB816A01908B073ED52846FEF7D6FDC7
:1058A000002839D040F601030B40012B34D030469C
:1058B000FBF7B8FB02AC0246019029462046FDF7F3
:1058C000BCF92046FEF7C2FD18B3019B9A6A44F268
:1058D0002001114003F1080529B122462946284636
:1058E000FCF724FB15E094E803003A4385E8030045
:1058F0009A620A4A1388304601331380FEF752FC3D
:10590000074A012303FA00F0136803431360FCF70E
:10591000E7FB01A8FBF794FB05B0F0BD38F50020CC
:1059200034F5002070470000074B5A6A10B51C463A
:105930000AB100F00DF80548FBF782FBE068BDE80E
:105940001040FBF7DDBA00BFF8B3002008B4002018
:1059500070B5104B104C1B6861685A7C0F4B86B0B9
:1059600053F822002269C3680392E269019200257C
:10597000012200920595049502955E68A268636A0B
:10598000B0476268636A6562134463602369636158
:1059900006B070BD84010020F8B3002000B50020DF
:1059A00010B5054C636A0BB1FFF7D2FF2368636043
:1059B000A3680133A36010BDF8B30020404B9A697F
:1059C000022A30B468D0042A6AD0012A6CD1D9697D
:1059D0005A690139072967D8DFE801F0041A663AE5
:1059E0006666665A147893F82850354924EA050407
:1059F0001470DD6AC5F10705A84020431070DA6A0B
:105A00000132DA6293F82820520816D1802018E07B
:105A1000147893F828502A4924EA05051570DC6AA1
:105A20006400C4F10604A04028431070DA6A013211
:105A3000DA6293F82820920802D081F8282033E017
:105A4000C020CA624A6981F8280001324A612BE00D
:105A5000117893F828501A4C21EA05051570D96A77
:105A60008900C1F10401884028431070DA6A0132CC
:105A7000DA6293F82820120905BFE262626984F8AD
:105A80002820F02102BF013284F8281062610BE067
:105A900010705A69013206E05A6922F8020B02E0DE
:105AA0005A6942F8040B5A615A6A01325A621B6AF7
:105AB0009A4202D130BCFFF74BBF30BC704700BFE9
:105AC000F8B300202DE9F047294B2A4C1B68121A25
:105AD0008046587C0F46561CFBF7D2FC182808BF9E
