:020000040800F2
:10000000E0D300205D020008B52500087522000835
:10001000B12500088305000819320008000000001F
:100020000000000000000000000000009D0100082A
:10003000D306000800000000F901000801290008AB
:1000400077020008770200087702000877020008AC
:10005000770200087702000877020008770200089C
:10006000770200087702000877020008770200088C
:10007000770200087702000877020008770200087C
:10008000770200087702000877020008770200086C
:10009000770200087702000877020008770200085C
:1000A000770200087702000877020008770200084C
:1000B000770200087702000877020008770200083C
:1000C000770200087702000877020008770200082C
:1000D00077020008F931000877020008770200086B
:1000E000770200087702000877020008770200080C
:1000F00077020008770200087702000877020008FC
:1001000077020008770200087702000877020008EB
:10011000770200087702000877020008E12900084A
:100120007702000889050008990500087702000891
:1001300077020008770200087702000877020008BB
:1001400077020008770200087702000877020008AB
:1001500077020008A9050008B9050008093200085F
:10016000770200087702000877020008770200088B
:1001700077020008770200087702000800000000FC
:100180007702000877020008DFF80CD000F086F94B
:100190000048004765350008E0D300202C4B196863
:1001A0000868B0E8F04F80F30988BFF36F8F4FF015
:1001B000000080F3118870470000000008480068C4
:1001C000006880F308884FF0000080F3148862B65E
:1001D00061B6BFF34F8FBFF36F8F00DF00BF00BF6B
:1001E00008ED00E0DFF80C00016841F470010160E7
:1001F000704700BF88ED00E0EFF30980BFF36F8F19
:10020000134B1A681EF0100F08BF20ED108A20E96A
:10021000F04F106009B44FF0500080F31188BFF325
:100220004F8FBFF36F8F04F00DFC4FF0000080F391
:10023000118809BC19680868B0E8F04F1EF0100F6B
:1002400008BFB0EC108A80F30988BFF36F8F704746
:1002500030000020EFF3058070470000064880471B
:1002600006480047FEE7FEE7FEE7FEE7FEE7FEE79B
:10027000FEE7FEE7FEE7FEE7CD290008890100085A
:100280002DE9F05F0546002092469B4688460646CB
:10029000814640241BE0284641464746224600F05E
:1002A000B4F853465A46C01A914110D31146184625
:1002B000224600F09BF82D1A67EB01084F462246B4
:1002C0000120002100F092F817EB00094E41201E9A
:1002D000A4F10104DFDC484631462A464346BDE826
:1002E000F09F40EA01039B0703D009E008C9121FF1
:1002F00008C0042AFAD203E011F8013B00F8013BE0
:10030000521EF9D27047D2B201E000F8012B491E0B
:10031000FBD270470022F6E710B513460A460446A2
:100320001946FFF7F0FF204610BD30B505462A46B6
:100330000B4612F8010B13F8014B08B1A042F8D09C
:100340001CB1002802D06D1CF1E7284630BD10B565
:10035000044604E00B7800F8013B03B1491C521E2F
:10036000F8D2204610BDCAB2401E10F8011F8A42C2
:1003700002D00029F9D100207047421C10F8011B5F
:100380000029FBD1801A704730B50546002003468E
:1003900000E05B1C934205D2EC5CC85C201A01D1E2
:1003A000002CF6D130BD70B5064602F0D5FF0468CA
:1003B00005460A220021304600F037F82C6070BD57
:1003C00030B50B46014600202022012409E021FA25
:1003D00002F59D4205D303FA02F5491B04FA02F522
:1003E0002844151EA2F10102F1DC30BD202A04DBF5
:1003F000203A00FA02F1002070479140C2F1200338
:1004000020FA03F3194390407047202A04DB203A76
:1004100021FA02F00021704721FA02F3D040C2F124
:10042000200291400843194670472DE9F047914654
:100430000F4680460446002614F8015B2DB100F0FB
:100440003FF80068405DC007F6D12B2D02D02D2D5E
:1004500018D0641E4A463946204600F035F827B1C8
:100460003968A14201D1C7F8008071054FF002043C
:100470000BD54042002803DD02F06EFF0460A007A8
:10048000BDE8F08746F48066E4E70028F8DA02F079
:1004900063FF04606FF00040F2E70000064C074D78
:1004A00006E0E06840F0010394E807009847103444
:1004B000AC42F6D3FFF76CFE045B0008245B000837
:1004C00000487047C45A00082DE9F05F8246007862
:1004D000002715468B460AF10104B946302801D0A1
:1004E0009DB113E014F8010B0127782803D0582898
:1004F00001D045B10AE00DB1102D07D1002710251C
:1005000014F8010B02E0082500E00A250026B04699
:100510000EE005FB080005FB06F1012701EB104684
:100520001FFA80F8B6F5803F00D3B94614F8010BE6
:10053000294600F018F80028EBDABBF1000F05D0CF
:100540000FB1641E00E05446CBF80040B9F1000F33
:1005500006D002F001FF02210160C81EBDE8F09F35
:1005600048EA0640FAE73A2800D2303820F0200264
:10057000412A01D3A2F13700884201D34FF0FF3066
:10058000704700BFFEE7000010B5024800F054F9C4
:1005900010BD00000006002010B5024800F04CF924
:1005A00010BD00004005002010B5024800F044F9DD
:1005B00010BD00006006002010B5024800F03CF9B4
:1005C00010BD0000A005002001460878103818234F
:1005D000B0FBF3F20848805CC865032A05D90868B7
:1005E0006FF30900001D886503E008686FF30900D8
:1005F0008865886D70470000205A00080146002079
:100600008A6A8B69CBB932B1012A0DD0022A03D094
:10061000032A10D10EE000BFCB6A03F08073B3F160
:10062000807F00D1012007E0CB6AB3F1C07F00D109
:10063000012001E000E000BF34E08B69B3F5005F0A
:100640001AD132B1012A07D0022A03D0032A11D1CC
:100650000AE000BF01200EE0CB6A03F08073B3F123
:10066000807F00D1012006E0CB6AB3F1C07F00D1CA
:10067000012000E000BF15E032B1012A05D0022AB6
:1006800004D0032A0CD103E000BF00BF012008E022
:10069000CB6A03F08073B3F1807F00D1012000E0CA
:1006A00000BF00BF704730B50468246824F480247C
:1006B00005682C60046863608468402C04D1046879
:1006C000A2600468E16003E00468A1600468E2607D
:1006D00030BD70472DE9F04106460027B846002599
:1006E00037E0745D705D2E2806D0681C305C2E28C3
:1006F00008D14FF0010805E0B8F1000F02D04FF02B
:10070000000824E0302C05DB392C03DCA4F1300098
:10071000C4B20EE0412C05DB462C03DCA4F137000B
:10072000C4B206E0612C04DB662C02DCA4F15700A5
:10073000C4B238467A1CD7B24246214602F06EFD5A
:10074000032002F023FF042F00DB04E000BF681C3D
:10075000C5B2082DC5DB00BFBDE8F08172B600BF91
:10076000FEE770B50446A56D00F044FB064694F81C
:100770003500022808D08020606500BF002084F882
:10078000340000BF012070BD2068006820F0160012
:10079000216808602068406920F080002168486175
:1007A000206C08B9A06C28B12068006820F008000F
:1007B000216808602068006820F001002168086056
:1007C00010E000F017FB801B05280BD92020606586
:1007D000032084F8350000BF002084F8340000BFF7
:1007E0000320D0E72068006800F001000028E8D16D
:1007F00094F85C103F208840A860012084F8350000
:1008000000BF002084F8340000BF00BFBBE70146F2
:1008100091F83500022803D08020486501207047F8
:10082000052081F835000868006820F001000A689A
:1008300010600020F3E70000F8B5044600200090A7
:100840008C4800684FF41651B0FBF1F7A56D2E6887
:1008500094F85C1008208840304098B12068006807
:1008600000F0040070B12068006820F004002168E6
:10087000086094F85C1008208840A860606D40F023
:100880000100606594F85C1001208840304068B138
:100890002068406900F0800040B194F85C100120AD
:1008A0008840A860606D40F00200606594F85C10BC
:1008B00004208840304068B12068006800F00200E1
:1008C00040B194F85C1004208840A860606D40F04E
:1008D0000400606594F85C1010208840304078B3C4
:1008E0002068006800F0080050B394F85C101020F5
:1008F0008840A8602068006800F4802080B12068EB
:10090000006800F4002028B9206CC8B12046216C92
:10091000884715E0A06C98B12046A16C88470FE08D
:100920002068006800F4807028B92068006820F012
:10093000080021680860206C10B12046216C8847AF
:1009400094F85C10202088403040002865D0206852
:10095000006800F0100000285FD094F85C102020A0
:100960008840A86094F83500052828D120680068E0
:1009700020F01600216808602068406920F080009F
:1009800021684861206C08B9A06C28B12068006813
:1009900020F008002168086094F85C103F2088402F
:1009A000A860012084F8350000BF002084F83400DE
:1009B00000BF206D10B12046216D8847F8BD20682A
:1009C000006800F4802080B12068006800F40020F6
:1009D00028B9606C10B12046616C88471DE0E06B5F
:1009E000D8B12046E16B884717E02068006800F422
:1009F000807068B92068006820F0100021680860E5
:100A0000012084F8350000BF002084F8340000BFC6
:100A1000E06B10B12046E16B8847606D38B3606DC4
:100A200000F00100F0B1052084F83500206800686E
:100A300020F001002168086000BF0098401C009071
:100A4000B84200D905E02068006800F001000028E5
:100A5000F3D100BF012084F8350000BF002084F8E6
:100A6000340000BFE06C10B12046E16C884700BF45
:100A7000A4E700002C0000202DE9F04104460025E9
:100A800000F0B8F9074614B90120BDE8F081606AAA
:100A900000B100BF022084F8350000BF002084F8B8
:100AA000340000BF2068006820F001002168086061
:100AB0000AE000F09FF9C01B052805D920206065D9
:100AC000032084F83500E0E72068006800F00100AA
:100AD0000028EED12068056821480540D4E90101CD
:100AE0000843E16808432169084361690843A16933
:100AF0000843E1690843216A08430543606A042802
:100B000003D1D4E90B010843054320680560206840
:100B1000456925F00705606A0543606A04280DD120
:100B2000A06A0543E06A48B12046FFF767FD28B197
:100B300040206065012084F83500A6E72068456103
:100B40002046FFF741FD064694F85C103F208840A0
:100B5000B06000206065012084F83500002094E733
:100B60003F8010F02DE9F04704460D4616461F461B
:100B70004FF00008D4F8589000BF94F834000128D2
:100B800002D10220BDE8F087012084F8340000BFC4
:100B900094F83500012825D1022084F83500002082
:100BA00060653B46324629462046FFF77CFD94F8B7
:100BB0005C103F208840C9F808002068006840F0B9
:100BC000160021680860206C28B12068006840F099
:100BD0000800216808602068006840F00100216872
:100BE000086006E000BF002084F8340000BF4FF02A
:100BF00002084046C6E70000F8B502460B4600254D
:100C0000002400200021D5E0012606FA01F51E6827
:100C100006EA0504AC4274D11E7906F00306012EE3
:100C200004D01E7906F00306022E13D190684F00FF
:100C30000326BE40B0434F00DE68BE4030439060A4
:100C4000506801268E40B0431E79C6F300168E40D0
:100C5000304350601E7906F00306032E09D0D06899
:100C60004F000326BE40B0434F009E68BE40304355
:100C7000D0601E7906F00306022E13D1CF0802F1D0
:100C8000200656F827004E07F70E0F26BE40B04349
:100C90004F07FF0E1E69BE403043CF0802F1200609
:100CA00046F8270010684F000326BE40B0431E7967
:100CB00006F003064F00BE40304310605E6806F445
:100CC0004036002E75D000BF002600963B4E366899
:100CD00046F48046394F3E603E46366806F480460C
:100CE000009600BF00BF364E8F0856F827008E07CB
:100CF000370F0F26BE40B043324EB24202D100261B
:100D000024E056E0304EB24201D101261EE02F4EC3
:100D1000B24201D1022619E02D4EB24201D1032682
:100D200014E02C4EB24201D104260FE02A4EB2420A
:100D300001D105260AE0294EB24201D1062605E07E
:100D4000274EB24201D1072600E008268F073F0F49
:100D5000BE4030431A4E8F0846F82700214E3068B7
:100D6000A0435E6806F4803606B120431D4E306015
:100D7000361D3068A0435E6806F4003606B1204395
:100D8000184E361D3060361D3068A0435E6806F48C
:100D9000801606B12043134E08363060361D306889
:100DA000A0435E6806F4001606B120430D4E0C36D3
:100DB0003060491C1029FFF427AFF8BD44380240C9
:100DC00008380140000002400004024000080240D0
:100DD000000C0240001002400014024000180240C3
:100DE000001C0240003C01400AB1816101E00B049B
:100DF00083617047014800687047000020000020B0
:100E000003480068034909780844014908607047AD
:100E1000200000202800002010B50D48006840F494
:100E200000700B4908600846006840F48060086064
:100E30000846006840F480700860032000F0C8F89D
:100E40000F2000F007F800F04BF8002010BD000064
:100E5000003C024070B588B0044600250026002200
:100E60002146372000F076F8372000F063F800BF05
:100E7000002001901648006840F0200014490860E6
:100E80000846006800F02000019000BF00BF02A9E2
:100E900003A800F073F900F099F945000D48B5FB7F
:100EA000F0F0461E0C480D49086040F2E7310B484F
:100EB000C160466000210161816000F04FFC20B9F3
:100EC000064800F07FFC08B070BD0120FBE7000081
:100ED0004038024040420F0000140040C00600208D
:100EE00008B500BF002000901148006840F4804021
:100EF0000F4908600846006800F48040009000BF79
:100F000000BF00BF00200090081F006840F0805024
:100F1000091F08600846006800F08050009000BF7C
:100F200000BF00220F21901E00F014F808BD000041
:100F30004438024001460846002809DB00F01F0340
:100F400001229A4043099B0003F1E023C3F80021EA
:100F500000BF70472DE9F05F80460D46164600271A
:100F600002F0DEF9074639462A46334601F007000B
:100F7000C0F1070ABAF1040F02D94FF0040A01E0E8
:100F8000C0F1070AD14600F1040ABAF1070F02D2F4
:100F90004FF0000A01E0A0F1030AD4464FF0010A25
:100FA0000AFA09FAAAF1010A0AEA020A0AFA0CFA8A
:100FB0004FF0010B0BFA0CFBABF1010B0BEA030B2F
:100FC0004AEA0B042146404602F0B2F9BDE8F09F20
:100FD00000BF00F00702064B19684FF6FF031940E7
:100FE000044B0B4343EA0221014B196000BF7047D9
:100FF0000CED00E00000FA0570B504460D460CB992
:10100000012070BD5848006800F00700A84209D2CE
:1010100055490D700846006800F00700A84201D04D
:101020000120EEE7207800F0020002281DD1207890
:1010300000F00400042805D14C48006840F4E0505A
:101040004A490860207800F00800082805D1474880
:10105000006840F46040454908604448006820F05A
:10106000F000A168084341490860207800F00100C1
:10107000A8B36068012807D13C4808380068C0F36D
:101080004040B8B90120BCE76068022802D060681F
:10109000032807D1354808380068C0F3406048B9D4
:1010A0000120AEE7314808380068C0F3400008B9B5
:1010B0000120A6E72D48006820F00300616808437E
:1010C0002A490860FFF796FE064609E0FFF792FE00
:1010D000801B41F28831884202D9032091E707E062
:1010E0002248006800F00C006168B0EB810FEDD180
:1010F0001D48006800F00700A84209D91A490D7080
:101100000846006800F00700A84201D0012078E7F7
:10111000207800F00400042807D11448006820F467
:10112000E050E168084311490860207800F00800A9
:10113000082808D10D48006820F46040216940EA81
:10114000C1000A49086000F061F808490968C1F364
:101150000311074A515CC840064908600648006808
:10116000FFF778FE00204CE7003C024008380240C0
:10117000285A00082C000020240000200F220260C2
:101180000D4A126802F0030242600B4A126802F034
:10119000F0028260084A126802F4E052C260064A15
:1011A000126802F46042D2080261044A126802F036
:1011B00007020A607047000008380240003C024005
:1011C00001480068704700002C00002000B5FFF7C0
:1011D000F7FF04490968C1F38221034A515CC84002
:1011E00000BD000008380240385A000800B5FFF77B
:1011F000E7FF04490968C1F34231034A515CC84022
:1012000000BD000008380240385A00082DE9F047B8
:10121000002400250026A1462548006800F00C00A7
:1012200020B1042805D008283AD105E0DFF88490E1
:1012300039E0DFF8849036E01D48001F006800F0B8
:101240003F041B48001F006800F4800078B11A4872
:101250001749091F0968C1F38811A0FB01700146F5
:10126000224600233846FFF70BF805460EE01148EA
:101270000F49091F0968C1F38811A0FB01700146DD
:10128000224600233846FEF7FBFF05460848001FAC
:101290000068C0F30140401C4600B5FBF6F902E0CF
:1012A000DFF8109000BF00BF4846BDE8F08700009F
:1012B000083802400024F40000127A00F8B5044611
:1012C0000CB90120F8BD207800F00100002874D08E
:1012D000F948006800F00C0004280DD0F6480068BA
:1012E00000F00C00082813D1F348001F006800F438
:1012F0008000B0F5800F0BD1EF4808380068C0F3CC
:101300004040002859D06068002856D10120D9E714
:1013100000BF6068B0F5803F08D1E7480838006832
:1013200040F48030E449083908601EE06068B0F598
:10133000A02F0DD1E0480838006840F48020DE4935
:10134000083908600846006840F4803008600CE006
:10135000D9480838006820F48030D7490839086037
:101360000846006820F48020086000BF606890B1E3
:10137000FFF740FD054606E0FFF73CFD401B6428F3
:1013800001D903209EE7CC4808380068C0F34040EC
:101390000028F1D011E0FFF72DFD054606E0FFF72C
:1013A00029FD401B642801D903208BE7C248083877
:1013B0000068C0F340400028F1D1207800F002001E
:1013C00002285FD1BC48006800F00C0058B1BA4850
:1013D000006800F00C0008281CD1B748001F006806
:1013E00000F48000B0B9B44808380068C0F3400089
:1013F00020B1E068012801D0012063E7AE48083839
:10140000006820F0F800216940EAC100AA490839C3
:10141000086037E0E06800B30120A8490860FFF7E2
:10142000E9FC054606E0FFF7E5FC401B022801D970
:10143000032047E7A04808380068C0F340000028B0
:10144000F1D09D480838006820F0F800216940EA92
:10145000C10099490839086014E0002097490860E4
:10146000FFF7C8FC054606E0FFF7C4FC401B022856
:1014700001D9032026E7904808380068C0F34000EF
:101480000028F1D1207800F0080008282CD16069EC
:10149000A8B101208A490860FFF7ACFC054606E0C8
:1014A000FFF7A8FC401B022801D903200AE7824865
:1014B0006C300068C0F340000028F1D014E0002038
:1014C0007F490860FFF796FC054606E0FFF792FCAF
:1014D000401B022801D90320F4E677486C300068ED
:1014E000C0F340000028F1D1207800F00400042867
:1014F00070D1002770483830006800F0805090B9F3
:1015000000BF002000906C483830006840F08050E8
:101510006949383108600846006800F08050009042
:1015200000BF00BF01276748006800F48070B0B9B1
:101530006448006840F4807062490860FFF75AFC14
:10154000054606E0FFF756FC401B022801D90320A0
:10155000B8E65C48006800F480700028F2D000BF54
:10156000A068012808D154486830006840F00100A4
:101570005149683108601DE0A06805280DD14E482A
:101580006830006840F004004B4968310860084644
:10159000006840F0010008600CE0474868300068CF
:1015A00020F001004449683108600846006820F0D6
:1015B0000400086000BFA068A8B1FFF71BFC054647
:1015C00009E0FFF717FC401B41F28831884202D93D
:1015D000032077E626E0384868300068C0F3400012
:1015E0000028EED013E0FFF705FC054608E0FFF702
:1015F00001FC401B41F28831884201D9032061E699
:101600002D4868300068C0F340000028EFD1012F5A
:1016100007D129483830006820F0805026493831F9
:10162000086000BFA069002845D02348006800F08A
:101630000C0008285DD0A069022845D100201F4970
:101640000866FFF7D7FB054606E0FFF7D3FB401B14
:10165000022801D9032035E6174808380068C0F38E
:1016600040600028F1D1D4E907010843616A40EAEB
:1016700081110122A06AC2EB500041EA00412C20F6
:10168000005D41EA00600C49091F086001200B4918
:101690000866FFF7AFFB054606E0FFF7ABFB401B14
:1016A000022801D903200DE6034808380068C0F37A
:1016B00040600028F1D049E008380240000047426D
:1016C000800E474200700040002021490866FFF765
:1016D00091FB054606E0FFF78DFB401B022801D970
:1016E0000320EFE51B480068C0F340600028F2D1FA
:1016F0002CE0A069012800D1E4E51648001D066829
:10170000A069012820D006F48001E06981421BD144
:1017100006F03F01206A814216D147F6C070304082
:10172000616AB0EB811F0FD106F440310122A06A3B
:10173000C2EB5000B1EB004F06D106F070612C20D7
:10174000005DB1EB006F01D00120BBE50020B9E5E1
:1017500000004742003802407047704710B5044609
:101760000CB9012010BD94F83D0028B9002084F880
:101770003C00204600F025F8022084F83D00211DA1
:10178000206801F035F9012084F8460000BF84F894
:101790003E0001213F2001554020015541200155C7
:1017A00000BF00BF012084F84200432001554420BF
:1017B00001554520015500BF012084F83D0000205F
:1017C000D0E77047014691F83D00012801D0012083
:1017D0007047022081F83D000868C06840F00100B1
:1017E0000B68D8601A4B086898421BD00868B0F1A3
:1017F000804F17D0174B0868984213D0164B0868D3
:1018000098420FD0154B086898420BD0144B0868CB
:10181000984207D0134B0868984203D0124B0868CF
:1018200098420CD10868806800F00702062A0CD0A4
:101830000868006840F001000B68186005E008685F
:10184000006840F001000B6818600020C0E700004D
:10185000000001400004004000080040000C00406F
:10186000000401400040014000180040704710B5DE
:10187000044620680069C0F34000D8B12068C06801
:10188000C0F34000B0B16FF0020021680861012090
:1018900020772068806900F0030018B12046FFF728
:1018A000E5FF05E0204600F0ADF8204600F0ABF87B
:1018B0000020207720680069C0F38000D8B120683C
:1018C000C068C0F38000B0B16FF004002168086107
:1018D000022020772068806900F4407018B120460B
:1018E000FFF7C4FF05E0204600F08CF8204600F02A
:1018F0008AF80020207720680069C0F3C000D8B1C2
:101900002068C068C0F3C000B0B16FF00800216863
:101910000861042020772068C06900F0030018B136
:101920002046FFF7A3FF05E0204600F06BF82046B5
:1019300000F069F80020207720680069C0F30010EB
:10194000D8B12068C068C0F30010B0B16FF01000CB
:1019500021680861082020772068C06900F4407081
:1019600018B12046FFF782FF05E0204600F04AF854
:10197000204600F048F8002020772068006900F039
:10198000010058B12068C06800F0010030B16FF06C
:10199000010021680861204600F036F820680069DF
:1019A000C0F3C01058B12068C068C0F3C01030B197
:1019B0006FF08000216808612046FFF7CDFE2068A7
:1019C0000069C0F3801058B12068C068C0F380106F
:1019D00030B16FF0400021680861204600F020F827
:1019E00020680069C0F3401058B12068C068C0F397
:1019F000401030B16FF02000216808612046FFF7E9
:101A0000ACFE10BD7047704710B50446034920680E
:101A1000884201D1FFF7F4F910BD00000014004026
:101A20007047F8B504460E46174694F83E00202845
:101A300036D106B10FB90120F8BD00BF94F83C00C3
:101A4000012801D10220F7E7012084F83C0000BF03
:101A500020633A463146204601F0EEFA0546EDB9DC
:101A6000206B012819D100BF002000902068006879
:101A7000009020684068009000BF00BF00BF00BF1A
:101A800021680C3151E8001F41F0100021680C3131
:101A900041E80002002AF3D100E001252846CBE707
:101AA0000220C9E770B504460D460D48844216D1A0
:101AB000204600F01BF800200A49485500231A462A
:101AC0000948006801F046FE00BF002084F83C0091
:101AD00000BF4FF4007203490148FFF7A2FF70BD39
:101AE000FC040020B80200201C00002070B5044651
:101AF000002520684069C0F3C01594F83D002128F6
:101B000017D1B5B100BF00BF2168143151E8001FE3
:101B100021F080002168143141E80002002AF3D14D
:101B200000BF606B10B1606BFEF71BFE204601F03A
:101B3000DEF820684069C0F3801594F83E00222842
:101B400017D1B5B100BF00BF2168143151E8001FA3
:101B500021F040002168143141E80002002AF3D14D
:101B600000BFA06B10B1A06BFEF7FBFD204601F09B
:101B700078F8002070BD70472DE9F84F04462068C2
:101B800005682068C668206847694FF00009CA46A2
:101B900005F00F09B9F1000F0AD105F0200038B1A6
:101BA00006F0200020B1204601F0B4F8BDE8F88F1F
:101BB000B9F1000F7CD007F0010018B906F490705D
:101BC000002875D005F0010030B106F4807018B11E
:101BD000206C40F00100206405F0040030B107F0F3
:101BE000010018B1206C40F00200206405F00200F2
:101BF00030B107F0010018B1206C40F004002064FF
:101C000005F0080048B106F0200010B907F0010007
:101C100018B1206C40F008002064206C002846D0E9
:101C200005F0200028B106F0200010B1204601F098
:101C300071F820684069C0F3801A206C00F0080039
:101C400010B9BAF1000F2DD0204601F00AF8206833
:101C5000406900F04000402820D100BF00BF21684B
:101C6000143151E8001F21F040002168143141E88F
:101C70000002002AF3D100BFA06B50B17548A16BE0
:101C80000865A06BFEF7C3FD88B1A06B016D8847A6
:101C90000DE02046FFF76FFF09E009E02046FFF75F
:101CA0006AFF04E02046FFF766FF002020647DE71E
:101CB000206B012876D105F01000002872D006F0C4
:101CC00010000028FAD000BF0020009020680068B3
:101CD000009020684068009000BF00BF2068406905
:101CE00000F0400040285ED1A06B006840681FFAF9
:101CF00080F8B8F1000F54D0A08D404551DDA4F814
:101D00002E80A06BC069B0F5807F43D000BF00BFBC
:101D100021680C3151E8001F21F4807021680C31DA
:101D200041E80002002AF3D100BF00BF00BF2168D4
:101D3000143151E8001F21F001002168143141E8FD
:101D40000002002AF3D100BF00BF00BF2168143198
:101D500051E8001F21F040002168143141E80002E1
:101D6000002AF3D100BF202084F83E000020206329
:101D700000BF00BF21680C3151E8001F21F01000A6
:101D800021680C3141E80002002AF3D100BFA06BAA
:101D9000FEF7E7FCA08DE28D801A81B22046FFF7A6
:101DA00081FE03E740E0A08DE18D401A1FFA80F824
:101DB000E08DC0B3B8F1000F35D000BF00BF21687F
:101DC0000C3151E8001F21F4907021680C3141E87A
:101DD0000002002AF3D100BF00BF00BF2168143108
:101DE00051E8001F21F001002168143141E8000290
:101DF000002AF3D100BF202084F83E000020206399
:101E000000BF00BF21680C3151E8001F21F0100015
:101E100021680C3141E80002002AF3D100BF41469D
:101E20002046FFF73FFEC1E605F0800030B106F026
:101E3000800018B1204601F065F9B7E605F04000D2
:101E400030B106F0400018B1204600F040FFADE68A
:101E500000BFABE6C92A000810B504460CB9012042
:101E600010BDA06900B100E000BF94F83D0028B9A2
:101E7000002084F83C00204600F028F8242084F854
:101E80003D002068C06820F400502168C8602046EA
:101E900000F0BCFF2068006920F4904021680861D0
:101EA0002068406920F02A00216848612068C068E5
:101EB00040F400502168C86000202064202084F88D
:101EC0003D0084F83E000020CAE7000010B586B04F
:101ED0000446142101A8FEF71DFA7A4920688842B9
:101EE00076D100BF002000907748006840F01000D5
:101EF000754908600846006800F01000009000BFB7
:101F000000BF00BF002000906F481438006840F008
:101F100001006D49143908600846006800F00100AE
:101F2000009000BF00BF4FF4C060019002200290FB
:101F300000200390032004900720059001A9634826
:101F4000FEF75AFE6248634908604FF0006048603F
:101F5000002160488160C1604FF48061016100210F
:101F600041618161C16101624162FEF785FD08B195
:101F7000FEF7F4FB00BF5748A063846300BF5448DA
:101F80007830554908604FF0006048604021524861
:101F900081600021C1604FF48061016100214161D5
:101FA0008161C16101624162FEF766FD08B1FEF721
:101FB000D5FB00BF48486063846300BF0022052151
:101FC0002520FEF7C7FF2520FEF7B4FF78E0FFE7E6
:101FD00042492068884273D100BF002000903A48EF
:101FE000006840F02000384908600846006800F0AA
:101FF0002000009000BF00BF00BF002000903248CA
:102000001438006840F004002F491439086008466D
:10201000006800F00400009000BF00BFC0200190E5
:1020200002200290002003900320049008200590D5
:1020300001A92B48FEF7E0FD25481838294908601A
:1020400080054860002127488160C1604FF48061AD
:102050000161002141618161C16101624162FEF75C
:102060000BFD08B1FEF77AFB00BF1E48A063846336
:1020700000BF174860301C4908604FF0206048607E
:102080004021194881600021C1604FF480610161E5
:10209000002141618161C16101624162FEF7ECFC96
:1020A00008B1FEF75BFB00BF0F486063846300BFAD
:1020B000002205214720FEF74DFF4720FEF73AFF9B
:1020C00006B010BD0010014044380240000002403C
:1020D0004064024040050020A0050020001401409B
:1020E000000802400006002060060020704770478C
:1020F0002DE9F84F04460E46174699464FF0000A60
:1021000094F83D0020285AD106B117B90120BDE846
:10211000F88F00BF94F83C00012801D10220F6E7B7
:10212000012084F83C0000BF00202064212084F8B6
:102130003D00FEF75FFE8246A784E784A068B0F505
:10214000805F04D1206910B90025B04602E0354611
:102150004FF0000800BF002084F83C0000BF1BE0E7
:102160005346002280212046CDF8009000F0FAFF6F
:1021700008B10320CBE745B9B8F80000C0F3080068
:102180002168486008F1020803E028782168486067
:102190006D1CE08C401EE084E08C0028E0D15346AA
:1021A000002240212046CDF8009000F0DBFF08B16E
:1021B0000320ACE7202084F83D000020A7E70220A0
:1021C000A5E70000F7B50446154694F83D00202821
:1021D00046D1019800B10DB90120FEBD00BF94F8B1
:1021E0003C00012801D10220F7E7012084F83C00DF
:1021F00000BF01982062A584E5840020206421208E
:1022000084F83D001748616BC8631748616B086428
:102210001648616BC8640020616B086501AE2368D5
:102220001A1D31682B46606BFEF79CFC6FF0400076
:102230002168086000BF002084F83C0000BF00BF98
:1022400000BF2168143151E8001F41F0800021686F
:10225000143141E80002002AF3D100BF0020BCE79E
:102260000220BAE7FD2B0008552C0008DD2A0008E3
:102270007047704700BFFEE770B504460D460DB1CC
:10228000012000E000200646092C3ED2DFE804F0E1
:102290003D050C131A21282F360032464FF4807169
:1022A0001B48FEF7A1FD31E032464FF4007118489B
:1022B000FEF79AFD2AE032464FF480611448FEF79B
:1022C00093FD23E032464FF400611148FEF78CFD88
:1022D0001CE032464FF480510D48FEF785FD15E0B5
:1022E00032464FF400510A48FEF77EFD0EE03246BA
:1022F0004FF480410648FEF777FD07E032464FF481
:1023000000410348FEF770FD00E000BF00BF70BD54
:102310000010024008B500BF002000901648006879
:1023200040F48000144908600846006800F480000A
:10233000009000BF00BF002205213920FEF70AFEF1
:102340003920FEF7F7FD002205213A20FEF702FEB4
:102350003A20FEF7EFFD002205214520FEF7FAFDA9
:102360004520FEF7E7FD002205214620FEF7F2FD9D
:102370004620FEF7DFFD08BD3038024010B5124A96
:102380008021102001F098F910490860104A4FF49C
:102390000071082001F090F90E4908600E4A0021F2
:1023A0000E4801F019FA0E4908600E4A00210E4845
:1023B00001F012FA0D4908600D4A00210D4801F0A4
:1023C0000BFA0D49086010BDE05900081800002004
:1023D000F85900081C000020745900080126000864
:1023E0000C00002098590008412800081000002027
:1023F000BC5900082D2800081400002000B587B043
:10240000142102A8FDF786FF00BF00200190474875
:10241000006840F08000454908600846006800F008
:102420008000019000BF00BF00BF0020019008465F
:10243000006840F0100008600846006800F01000D6
:10244000019000BF00BF00BF002001900846006857
:1024500040F0040008600846006800F004000190A5
:1024600000BF00BF00BF002001900846006840F098
:10247000010008600846006800F00100019000BFFC
:1024800000BF00BF002001900846006840F0020035
:1024900008600846006800F00200019000BF00BF1D
:1024A00001224FF47F412248FEF79EFC00224FF4A8
:1024B00070612048FEF798FC00224FF419411E4835
:1024C000FEF792FC4FF47F400290012003900490AD
:1024D0000020059002A91648FEF78EFB4FF47060AD
:1024E00002900120039000200490059002A9114859
:1024F000FEF782FB4FF41940029001200390002068
:102500000490059002A90C48FEF776FB102002907B
:10251000022003900020049005900220069002A95A
:102520000648FEF769FB07B000BD000030380240E6
:102530000010024000080240000002400004024077
:1025400010B50B480B4908604FF4E130486000219A
:1025500008488160C16001610C21416100218161F5
:10256000C161FFF779FC08B1FEF7F8F810BD000073
:1025700000100140B804002010B50B480B4908605A
:102580004FF4E1304860002108488160C16001617A
:102590000C21416100218161C161FFF75DFC08B13F
:1025A000FEF7DCF810BD000000140140FC04002020
:1025B00000BFFEE700BFFEE770B504460D465CB104
:1025C0002046FDF7DAFE86B2324621460348FFF781
:1025D000F9FD284600F0DAFF70BD0000FC04002081
:1025E00070B5044644B12046FDF7C7FE85B22A46C1
:1025F00021460248FFF7E6FD70BD0000FC04002004
:102600008CB04FF4FA7000F0C1FF31A000F064FE0E
:102610004FF4FA7135A0FFF7CFFF36A000F05CFE53
:102620004FF4FA7137A0FFF7C7FF38A000F054FE4F
:102630004FF47A713BA0FFF7BFFF3DA000F04CFEC6
:102640004FF4FA713DA0FFF7B7FF40A000F044FE41
:102650004FF4FA7146A0FFF7AFFF4EA000F03CFE2A
:102660004FF4FA714FA0FFF7A7FF52A000F034FE1D
:102670004FF4FA7152A0FFF79FFF55A000F02CFE17
:102680004FF4FA7159A0FFF797FF00BF5D4800684B
:10269000002817DB5CA30FCB8DE80F006846FDF721
:1026A0006CFE0446234657485BA1026804A800F06C
:1026B00023FE4FF4FA7104A8FFF77EFF6846FFF788
:1026C0008FFF00BF4FF47A7000F060FFDEE700007C
:1026D000B2E2CAD44553503031C4A3BFE9CAC7B728
:1026E000F1B4E6D4DA2E2E2E0A00000041540D0A71
:1026F00000000000B9D8B1D5C4A3BFE9BBD8CFD47E
:102700000A000000415445300D0A0000B2E9BFB490
:10271000C4A3BFE9B0E6B1BED0C5CFA22E2E2E0A0B
:102720000000000041542B474D520D0A00000000EC
:10273000BFAAC6F44150C4A3CABD0A0041542B43EA
:10274000574D4F44453D320D0A000000C5E4D6C345
:10275000C8C8B5E3C3FBB3C6455350313134353136
:1027600034A3ACCEDEC3DCC2EB2E2E2E0A0000005A
:1027700041542B43575341503D224553503131343E
:10278000353134222C222573222C31312C300D0A84
:1027900000000000B9D8B1D5CDB8B4ABC4A3CABD50
:1027A0000A00000041542B4349504D4F44453D30F1
:1027B0000D0A0000C9E8D6C3B6E0C1ACBDD30A001B
:1027C00041542B4349504D55583D310D0A000000EE
:1027D000BFAAC6F4544350B7FECEF1C6F7A3ACB6B9
:1027E000CBBFDA3636362E2E2E0A000041542B434C
:1027F00049505345525645523D312C3636360D0A16
:10280000000000000000002048454C4C4F2045537C
:102810005030310D0A00000041542B4349505345BC
:102820004E443D25642C25640D0A000000BF03487A
:10283000FDF750FF012000F0A9FEF8E7040000209A
:10284000ADF5007D00BF642000F0A0FE4FF40072E3
:102850001E491F48FFF7E5F84FF400721D491E4856
:10286000FFF7DFF800BF0A23002269461B48006813
:1028700000F0E2FE002824D1694619A000F02CFDEA
:102880003A216846FDF76FFD05461DB115B1681C7C
:1028900000F0FEFF6C4615A12046FDF746FDA04264
:1028A00004D92046FDF77FFD1249086012A1204699
:1028B000FDF73BFDA04203D94FF0FF300D49086002
:1028C00000BF012000F062FECDE70000B80000204C
:1028D000B8040020B8020020FC0400201C000020E6
:1028E00055415254363A2025730D0A00434F4E4E3F
:1028F0004543540000000020434C4F534544000022
:1029000010B54FF0E020006902F0DEFD012801D093
:1029100002F094F910BD000000B593B0302107A873
:10292000FDF7F8FC142102A8FDF7F4FC00BF00201D
:1029300001902448006840F0805022490860084611
:10294000006800F08050019000BF00BF00BF002071
:1029500001901D48006840F480401B49086008460B
:10296000006800F48040019000BF00BF0120079084
:102970000004089002200D9041050E9104210F9152
:10298000A8211091022111910421129107A8FEF7AC
:1029900095FC08B1FDF7E2FE0F20029002200390A3
:1029A000002004904FF4A05005904FF48050069002
:1029B000052102A8FEF720FB08B1FDF7CFFE13B0FA
:1029C00000BD00004038024000700040034800682D
:1029D00040F47000014908607047000088ED00E095
:1029E00010B50248FEF743FF10BD0000C0060020EE
:1029F00010B50268294B98420ED0B0F1804F0BD031
:102A0000274B984208D0274B984205D0264B984236
:102A100002D0264B984203D122F070024B681A4331
:102A20001E4B984220D0B0F1804F1DD01C4B9842D5
:102A30001AD01C4B984217D01B4B984214D01B4BFA
:102A4000984211D01A4B98420ED01A4B98420BD094
:102A5000194B984208D0194B984205D0184B984210
:102A600002D0184B984203D122F44072CB681A432B
:102A700022F080034C6943EA040202608B68C3625F
:102A80000B688362054B984202D0084B984201D1F3
:102A90000B6903630123436110BD00000000014086
:102AA0000004004000080040000C00400004014009
:102AB000004001400044014000480140001800402F
:102AC000001C00400020004070B50546AC6B0020A3
:102AD000E085E0842046FFF74EF870BD70B50646ED
:102AE0000025B46B20684069C0F3C01594F83D0020
:102AF000212805D125B10020E084204600F0F7F818
:102B000020684069C0F3801594F83E00222805D162
:102B100025B10020E085204600F0A3F8206C40F0AD
:102B2000100020642046FFF726F870BD70B50546FA
:102B3000AC6B2868006800F48070002842D1E08502
:102B400000BF00BF21680C3151E8001F21F48070E4
:102B500021680C3141E80002002AF3D100BF00BF18
:102B600000BF2168143151E8001F21F001002168E5
:102B7000143141E80002002AF3D100BF00BF00BFBA
:102B80002168143151E8001F21F040002168143100
:102B900041E80002002AF3D100BF202084F83E0063
:102BA000206B01280ED100BF00BF21680C3151E815
:102BB000001F21F0100021680C3141E80002002ABA
:102BC000F3D100BF206B012804D1A18D2046FEF770
:102BD00069FF02E02046FFF789FA70BD70B505462F
:102BE000AC6B206B012805D1A08D41082046FEF773
:102BF00059FF02E02046FFF77AFA70BD70B505462E
:102C0000AC6B2868006800F48070F8B90020E0849C
:102C100000BF00BF2168143151E8001F21F080007F
:102C20002168143141E80002002AF3D100BF00BF3F
:102C300000BF21680C3151E8001F41F040002168BD
:102C40000C3141E80002002AF3D102E02046FFF7F0
:102C50000FFB70BD70B50446A56B2846FFF709FB56
:102C600070BD00BF00BF02680C3252E8002F22F492
:102C7000907102680C3242E80013002BF3D100BFC0
:102C800000BF00BF0268143252E8002F22F0010199
:102C90000268143242E80013002BF3D100BF016B2D
:102CA00001290ED100BF00BF02680C3252E8002F8C
:102CB00022F0100102680C3242E80013002BF3D11D
:102CC00000BF202180F83E1000210163704710B53D
:102CD00004462068C06820F040002168C8602020B9
:102CE00084F83D002046FFF7C3FA002010BD00BF66
:102CF00000BF02680C3252E8002F22F0C0010268C7
:102D00000C3242E80013002BF3D100BF202180F8E1
:102D10003D107047F8B5044694F83E00222873D160
:102D2000A068B0F5805F0CD1206950B90025A66A73
:102D300020684068C0F308003080A06A801CA06250
:102D400015E0A56A0026A068B0F5805F03D0A068F2
:102D500028B9206918B920684068287004E0206804
:102D6000406800F07F002870A06A401CA062E08DDF
:102D7000401E80B2E085002844D12068C06820F061
:102D800020002168C8602068C06820F48070216835
:102D9000C8602068406920F0010021684861202057
:102DA00084F83E00206B012826D10020206300BF5C
:102DB00000BF21680C3151E8001F21F0100021688C
:102DC0000C3141E80002002AF3D100BF20680068FE
:102DD00000F0100010280AD100BF002000902068E9
:102DE0000068009020684068009000BF00BFA18D7F
:102DF0002046FEF757FE02E02046FFF777F9002055
:102E0000F8BD01E00020FBE70220F9E72DE9F84FCB
:102E100004462068006920F44050E16808432168B6
:102E200008612169A068084361690843E1690843B2
:102E300000902068C06849F20C61884300990843FB
:102E40002168C8602068406920F44070A169084387
:102E50002168486176492068884203D07549206816
:102E6000884203D1FEF7C2F9814602E0FEF7AEF9CF
:102E70008146E069B0F5004F6CD102206168A0FB8B
:102E8000015003461920A9FB007001462A46384626
:102E9000FDF7F6F96421B0FBF1F04FEA001A0220C9
:102EA0006168A0FB01510B461920A9FB00712A465D
:102EB0003846FDF7E5F9834602206168A0FB015022
:102EC00003461920A9FB00712A463846FDF7D8F9B8
:102ED0006421B0FBF1F000EBC00101EB0010ABEBA3
:102EE0008000322101EBC0006421B0FBF1F000F062
:102EF000F8000AEB400A02206168A0FB015003467B
:102F00001920A9FB007001462A463846FDF7B8F99A
:102F1000834602206168A0FB015003461920A9FBEB
:102F200000712A463846FDF7ABF96421B0FBF1F099
:102F300000EBC00101EB0010ABEB8000322101EB94
:102F4000C0006421B0FBF1F000F00700504421689C
:102F500088606AE004206168A0FB015003461920E4
:102F6000A9FB007001462A463846FDF789F98246DA
:102F700004206168A0FB015003461920A9FB0070E2
:102F800001462A463846FDF77BF96421B0FBF1F093
:102F900000EBC00101EB0010AAEB8000322101EB35
:102FA00000106421B0FBF1F000F0F00A0420616829
:102FB000A0FB017003461920A9FB00513A462846A0
:102FC000FDF75EF96421B0FBF1F00AEB001A042072
:102FD0006168A0FB01510B461920A9FB00712A462C
:102FE0003846FDF74DF9834604206168A0FB015087
:102FF00003461920A9FB007001462A463846FDF712
:103000003FF96421B0FBF1F000EBC00101EB0010CF
:10301000ABEB8000322101EB00106421B0FBF1F03A
:1030200000F00F00504421688860BDE8F88F000070
:10303000001001400014014077B581B004461546E8
:103040000298A062A58500202064222084F83E001A
:103050002948A16BC8632948A16B08642848A16B63
:10306000C8640020A16B086502AE32682368191D90
:103070002B46A06BFDF776FD00BF00200090206876
:103080000068009020684068009000BF00BF00BF4B
:10309000002084F83C0000BF00BF00BF21680C3155
:1030A00051E8001F41F4807021680C3141E80002B2
:1030B000002AF3D100BF00BF00BF2168143151E8DE
:1030C000001F41F001002168143141E80002002A8C
:1030D000F3D100BF00BF00BF2168143151E8001FC9
:1030E00041F040002168143141E80002002AF3D188
:1030F00000BF002004B070BD2D2B0008DD2B0008A0
:10310000DD2A0008014691F83D00212828D1886871
:10311000B0F5805F0BD1086948B90A6A1088C0F31E
:1031200008000B685860086A801C086205E00B6A9A
:10313000581C086218780B685860C88C401E80B212
:10314000C88458B90868C06820F080000B68D8604F
:103150000868C06840F040000B68D86000207047E5
:103160000220FCE72DE9F04104460D46174698463B
:10317000069E34E0701C88B32EB1FDF73BFEA0EB39
:103180000800B0422BD900BF00BF21680C3151E8C4
:10319000001F21F4D07021680C3141E80002002AA0
:1031A000F3D100BF00BF00BF2168143151E8001FF8
:1031B00021F001002168143141E80002002AF3D116
:1031C00000BF202084F83D0084F83E0000BF0020AE
:1031D00084F83C0000BF0320BDE8F081FFE72068D1
:1031E00000682840A84201D1012000E00020B84238
:1031F000C0D00020F0E7000010B50248FEF7BCFC8C
:1032000010BD0000B804002010B50248FEF7B4FC61
:1032100010BD0000FC04002000BFFEE72DE9F041D6
:1032200004460F46904600224FF480512748FDF790
:10323000DBFD07F00F002649085CB8F1000F01D054
:10324000802100E0002140EA0105002615E000226F
:103250004FF400611D48FDF7C7FDC5F3C0124FF4E0
:1032600080711C48FDF7C0FD6806050E0122D102E1
:103270001648FDF7B9FD701CC6B2082EE7DB002228
:103280004FF480711148FDF7AFFD012211020F4884
:10329000FDF7AAFD04F001024FF400410B48FDF7D1
:1032A000A3FDC4F340024FF480610A48FDF79CFD82
:1032B00000224FF400610748FDF796FD012211033B
:1032C0000248FDF791FDBDE8F081000000000240DA
:1032D000105A0008000802400FB4054B10B503A9AE
:1032E000044A029800F04EF810BC5DF814FB000090
:1032F00049350008B00000200FB4084B10B504A9F0
:1033000002AA039800F03EF8044602A9002000F04B
:1033100015F9204610BC5DF814FB00003D3500088F
:1033200002480068C0F30220704700000CED00E086
:1033300010B5002804DB0A07130E054A135406E0F3
:103340000A07140E034A00F00F031B1FD45410BDCC
:1033500000E400E018ED00E000487047B4000020F1
:10336000EFF30580704702E008C8121F08C1002A69
:10337000FAD170477047002001E001C1121F002AF6
:10338000FBD170472DE9FF4F8BB09A460F4605469B
:10339000002606E025280BD052460D9990476D1C5B
:1033A000761C28780028F5D10FB03046BDE8F08FA4
:1033B0000024A0460122604900E0044315F8013FC3
:1033C000203B02FA03F00842F7D128782E2817D1C3
:1033D00015F8010F44F004042A280ED06FF02F02D4
:1033E0002878A0F1300109290AD808EB880102EBFE
:1033F000410100EB01086D1CF2E757F8048B6D1CCE
:10340000287869283ED006DC0028CDD063280BD070
:10341000642804D136E0732810D075284BD052466A
:103420000D999047761C85E017F8040B8DF8000085
:1034300000208DF80100E946012003E057F8049BC5
:103440004FF0FF3061074FF0000401D40AE0641C24
:1034500044450DDA8442FADB19F804100029F6D14C
:1034600006E0641C8442FCDB19F804100029F8D142
:10347000264404E019F8010B52460D999047641E4A
:10348000F8D257E001CF4FF00A0B002802DA404291
:103490002D2102E0210504D52B218DF824100121D6
:1034A00003E0E10705D02021F7E70DF1200908919D
:1034B0000CE00021F9E701CF4FF00A0BF9E759467C
:1034C000FCF77EFF01F1300209F8012D0028F6D14A
:1034D000ADEB090000F1200B600701D44FF00108AB
:1034E000D84502DDA8EB0B0000E000208046002458
:1034F00006E009A85246005D0D999047641C761CB1
:1035000008988442F5DB04E0302052460D9990473C
:10351000761CB8F10001A8F10108F5DC05E019F806
:10352000010B52460D999047761CBBF10001ABF19F
:10353000010BF4DC6D1C34E7092801000A68531CF8
:103540000B6010707047000013B50C464FF6FF7308
:10355000012269460248FEF7CBFD00981CBD000021
:10356000B8040020FDF758FCFFF7D6F9FEF746FF38
:10357000FEF7E6FFFEF7CEFEFEF7FEFF00F016F8C0
:10358000FEF7FCFE00F028F800BFFEE770B5054628
:10359000FFF7E6FE10B16FF0050404E0002415B15A
:1035A000284601F06FF9204670BD000010B5FFF706
:1035B000D7FE10B16FF0050409E00648006820B995
:1035C000012004490860002401E04FF0FF34204648
:1035D00010BD00008000002070B5FFF7C1FE10B1E3
:1035E0006FF005041FE011480068012819D100BFE1
:1035F000801F0021002804DB0A07130E0C4A135415
:1036000006E00A07150E0B4A00F00F031B1FD554E6
:1036100000BF00BF02200549086001F0AFF9002497
:1036200001E04FF0FF34204670BD00008000002014
:1036300000E400E018ED00E02DE9F84307460D46F0
:1036400091461C463E464FF00008FFF789FEE0B168
:103650000EB105B114B16FF0030828E0002000900E
:103660006A462946304601F0F3FD012802D06FF08A
:1036700002081CE00098D0B14FF080500D4908605E
:10368000BFF34F8FBFF36F8F11E006B115B96FF025
:1036900003080CE022462946304601F025FD0128AA
:1036A00005D014B16FF0010801E06FF00208404648
:1036B000BDE8F88304ED00E02DE9F84305460E4629
:1036C00014464FF00009FFF74BFE00283ED1002DB5
:1036D0003CD0002E3AD0471EBCB1A06858B1E0687B
:1036E000502808D3206930B105FB06F0616981429A
:1036F00001D301270AE0A06840B9E06830B9206929
:1037000020B9606910B9002700E00027012F09D116
:103710000020009031462846A368226901F0D5FABE
:10372000814606E02FB900223146284601F0A0FA72
:103730008146B9F1000F09D014B1D4F8008001E03E
:103740004FF000084146484601F060F84846BDE8A1
:10375000F88300002DE9F84307460D4691461C46C4
:103760003E464FF00008FFF7FBFDE8B10EB105B192
:1037700014B16FF003082AE00020009000236A468D
:103780002946304601F032FC012802D06FF00208D1
:103790001DE00098D8B14FF080500E490860BFF38B
:1037A0004F8FBFF36F8F12E006B115B96FF00308AA
:1037B0000DE0002322462946304601F043FB012854
:1037C00005D014B16FF0010801E06FF00208404627
:1037D000BDE8F88304ED00E02DE9FF478046894607
:1037E000144600200390FFF7BBFD00284ED1B8F12E
:1037F000000F4BD0802618258246471E44B3206810
:1038000008B1D4F800A0A06900B1A5692DB1382D88
:1038100003D8207900F0010018B1002004B0BDE801
:10382000F087606908B160698608A06840B1E06807
:103830005C2805D3206918B1606908B1012708E048
:10384000A06830B9E06820B9206910B9002700E00D
:103850000027012F0CD12169A0684B463246CDE9E3
:10386000005102905146404601F0D0FD03900DE01A
:1038700067B903A8B2B24B465146CDE90050404665
:1038800001F092FD012801D0002003900398C5E7C4
:103890002DE9F0410446042231A12046FCF774FDD5
:1038A000C8B9002500262C212046FCF75CFD074600
:1038B0003FB1201DFCF777FD0546781CFCF773FD32
:1038C00006463246294628A0FFF706FDF1B2E8B2C7
:1038D000FEF7D2FC42E005222CA12046FCF754FD65
:1038E000002826D1002600272C212046FCF73BFD8E
:1038F0008046B8F1000F16D0601DFCF754FD064657
:1039000008F10100FCF74FFD0746002509E0012002
:10391000A840304020B1F9B26A1CD0B2FEF7ACFC2E
:103920006D1C082DF3DB3A4631461AA0FFF7D4FC94
:1039300014E0052220A12046FCF726FD58B90722F5
:10394000611D1F48FCF703FD00201D49C871084692
:10395000FCF7C0FE02E01BA0FFF7BEFCBDE8F08153
:103960004C45443A000000004C454420436F6D6DC7
:10397000616E64202D204C45443A2025642C204C57
:103980006576656C3A2025640A0000004C45445376
:103990003A0000004C45445320436F6D6D616E64E6
:1039A000202D204D61736B3A2025642C204C6576C8
:1039B000656C3A2025640A00444953503A000000DF
:1039C00004000020556E6B6E6F776E20436F6D6D37
:1039D000616E640A000000002DE9F04105460E46C4
:1039E0001648076816480068001D00F0C3FD681CF3
:1039F00038B936B112480168091D124800F010FEAE
:103A00001AE07C190E4800684460BC4207D20C489A
:103A10000168091D0C48006800F0E8FD0CE008484A
:103A20000168091D0948006800F0E0FD08480068C9
:103A3000844201D206480460BDE8F08144000020C1
:103A400030000020F80B0020380000203400002057
:103A50006000002010B5044600F0EEFD2448006828
:103A6000401C234908602348006840B9214804608D
:103A70000846006801280DD100F0FCF90AE01E4854
:103A8000006838B91B480068C06AE16A884201D8FA
:103A90001848046019480068401C18490860084626
:103AA000006860641649E06A0968884202D91449CE
:103AB000E06A0860E16A01EB8101124A02EB8100D1
:103AC000211D00F0ADFD00F0E1FD0B48006868B17C
:103AD00008480068C06AE16A884207D24FF0805007
:103AE00009490860BFF34F8FBFF36F8F10BD00000F
:103AF00040000020300000204C0000205C0000202E
:103B0000480000204807002004ED00E008B500F060
:103B100093FD12480068E8B9114800F057FD1148BC
:103B200000F054FD0E48104908600E480F49086027
:103B300000200F4B0F4A102100900A2001F0C5F819
:103B4000064908600846006820B10BA103480068D8
:103B500000F05CFE00F09AFD08BD0000740000203B
:103B60000C0C0020200C00206C00002070000020B5
:103B7000340C0020840C0020546D725100000000B1
:103B800010B516E000F058FD0C48C068C468201D50
:103B900000F0F0FC0A480068401E09490860094826
:103BA0000068401E0749086000F070FD204600F0E4
:103BB0005FF8044800680028E4D110BDE40B002041
:103BC000400000203C00002070B504460D46206CEB
:103BD00070B1216CE0680144E160D4E902108842D0
:103BE00001D32168E1602846226CE168FCF779FB8B
:103BF00070BD2DE9F04104460F4615464FF0000810
:103C0000A66B206C48B9206800282CD1A06801F070
:103C100013FD80460020A06025E07DB93946226C66
:103C20006068FCF75EFB216C606808446060D4E962
:103C30000101884217D32068606014E03946226C85
:103C4000E068FCF74EFB216CE068411AE1602168F6
:103C5000E068884203D2216CA068411AE160022D1D
:103C600001D106B1761E701CA0634046BDE8F0810C
:103C700010B5044694F8590030B9206B00F024FDCB
:103C8000204600F021FD1AE094F85900012803D1E4
:103C9000204600F019FD12E094F85900022801D1E5
:103CA000012000E0002050B900BF502080F31188AF
:103CB000BFF34F8FBFF36F8F00BF00BFFEE710BD94
:103CC0000146084A126812680AB9012200E000227F
:103CD0000A600A6822B9034A1268D268106800E0D4
:103CE000002070476C00002030B54FF400431748A7
:103CF00000F007042CB1C01D20F00700134C041B7A
:103D00001B1B0246124C22600024114D6C60D0181F
:103D1000083820F007000F4C206000240D4D2D685E
:103D20006C600C4D2D682C601146441A4C60094C97
:103D300024680C60084D4C682C60084D4C682C6061
:103D40004FF00044064D2C6030BD0000DC13002015
:103D5000840000208C0000209400002090000020AF
:103D6000A000002000BFFFF70BFF064800680128F5
:103D7000F9D94FF0805004490860BFF34F8FBFF36B
:103D80006F8FF0E74807002004ED00E02DE9F041D7
:103D900006460D4617469846069C0DB9246000E07D
:103DA0002760E66325640121204600F0FFFF84F8C8
:103DB0004C80BDE8F0812DE9F05F82460E469046CA
:103DC0009B460A9F0C9C4FEA8801A522206BFCF7BA
:103DD0009AFAA8F10100216B01EB800929F007098B
:103DE00009F0070008B9012000E0002050B900BF29
:103DF000502080F31188BFF34F8FBFF36F8F00BF48
:103E000000BFFEE786B1002507E0715D04F13400D4
:103E10004155705D00B902E06D1C102DF5D300BF57
:103E200000214320015502E0002084F83400382F9F
:103E300000D33727E762E76400202065201D00F0EB
:103E4000D2FB04F1180000F0CEFB2461C7F138006A
:103E5000A06164620020606584F858005A465146AB
:103E6000484600F071FB20600B9808B10B98046085
:103E7000BDE8F09F10B5002407E004EB84010F4A71
:103E800002EB810000F0A2FB641C382CF5D30C4837
:103E900000F09CFB0B4800F099FB0B4800F096FBF0
:103EA0000A4800F093FB0A4800F090FB04480949D7
:103EB000086004480849086010BD00004807002059
:103EC000A80B0020BC0B0020D00B0020E40B00202E
:103ED000F80B0020340000203800002010B5014607
:103EE000164800E0006803688B42FBD30246436833
:103EF00013448B4204D143684C6823444360014619
:103F00000A464B6813440468A34211D10C4C036861
:103F10002468A34208D04B680468646823444B605B
:103F200003681B680B6005E0054B1B680B6001E034
:103F300003680B60884200D0016010BD840000203F
:103F40008C0000202DE9F04104460D4616461F4620
:103F50004FF0000865602461B5420CD8F01BA169E0
:103F6000884202D34FF0010811E0211D0948006882
:103F700000F03CFB0BE0BE4204D2BD4202D34FF046
:103F8000010804E0211D0448006800F02FFB4046B2
:103F9000BDE8F081700000206C00002070B505467F
:103FA00000F04AFBA86B08B9012400E0002400F0EF
:103FB0006DFB204670BD70B5054600F03DFBA86B5B
:103FC000E96B884201D1012400E0002400F05EFB8F
:103FD000204670BDF8B505460F461A480068C0680F
:103FE000C468201D00F0C6FA94F8280000F0040010
:103FF000E8B1A06941192B463A462046FFF7A2FFD7
:10400000D8B1002003462A4601460090204601F020
:104010006FFC064656B900BF502080F31188BFF3ED
:104020004F8FBFF36F8F00BF00BFFEE705E094F82E
:10403000280020F0010084F828002046216A8847E3
:10404000F8BD00006C000020F0B587B0A0E0039838
:10405000002811DA04AE56B900BF502080F3118851
:10406000BFF34F8FBFF36F8F00BF00BFFEE7D6E9EE
:104070000020B168904700BF03980028E6DB059C4C
:10408000606908B9012000E0002010B9201D00F08F
:1040900071FA02A800F0DEF8054603980A2875D2E6
:1040A000DFE800F009050739416306083A4200BF1E
:1040B00000BF00BF00BF94F8280040F0010084F862
:1040C00028000498A269811803462A462046FFF773
:1040D00039FFF8B12046216A884794F8280000F09B
:1040E0000400B8B1002000900498A1694218002390
:1040F0001946204601F0FCFB074657B900BF502087
:1041000080F31188BFF34F8FBFF36F8F00BF00BFE5
:10411000FEE700BF3BE000BF94F8280020F001005C
:1041200084F8280033E000BF94F8280040F0010034
:1041300084F828000498A061A06908B1012000E07B
:10414000002050B900BF502080F31188BFF34F8F7B
:10415000BFF36F8F00BF00BFFEE7A06941192B4678
:104160002A462046FFF7EEFE11E094F8280000F002
:10417000020018B9204600F0A7FA05E094F82800DC
:1041800020F0010084F8280001E0FFE700BF00BF35
:10419000002203A90448006800F0A6FF00287FF46D
:1041A00056AF07B0F0BD000074000020F8B505461A
:1041B0000C4600F03FFC684600F04CF806460098BC
:1041C00020BB44B9B54206D801F0D4FA314628469E
:1041D000FFF700FF1CE03CB10E480068006808B91A
:1041E000012000E000200446A91B22460A4800687E
:1041F00000F022FB01F0BEFA50B94FF080500749A1
:104200000860BFF34F8FBFF36F8F01E001F0B2FA88
:10421000F8BD0000700000207400002004ED00E0F4
:104220000A490968096809B9012100E0002121B1A2
:104230004FF0FF31064A116006E004490968C96879
:10424000C868034A416811607047000034000020CC
:104250006000002070B5044601F046F905460748A5
:104260000068854204D200F00BF80120206001E0D4
:104270000020206001480560284670BD7C000020B9
:104280002DE9F84334E025480068C06805682348F4
:104290000068C068C468201D00F06CF92046216ADF
:1042A000884794F8280000F0040008B3A069461974
:1042B000AE4207D966602461211D1848006800F0ED
:1042C00095F915E0002003462A4601460090204655
:1042D00001F00EFB074657B900BF502080F311884C
:1042E000BFF34F8FBFF36F8F00BF00BFFEE700BF6C
:1042F0000A480068006808B9012000E00020002892
:10430000C1D00648D0F8008005480068034908601D
:104310000348C0F80080BDE8F88300006C0000206E
:10432000700000200E480068401C08B9012000E021
:10433000002050B900BF502080F31188BFF34F8F89
:10434000BFF36F8F00BF00BFFEE700BF502080F3B8
:104350001188BFF34F8FBFF36F8F00BF00BFFEE721
:10436000A400002008B500BF6846FFF7A9FC04467A
:1043700020460099FFF71AFFFFF766FEF4E770B5D5
:10438000044600F059F994F9455010E0606A08B904
:10439000012000E0002038B904F1240001F09EF96A
:1043A00018B100F0A9FA00E003E0681E45B2002D44
:1043B000ECDC00BFFF2084F8450000F067F900F056
:1043C0003BF994F9445010E0206908B9012000E05D
:1043D000002048B904F1100001F080F908B100F0A4
:1043E0008BFA681E45B200E001E0002DECDC00BF56
:1043F000FF2084F8440000F049F970BD2DE9F04138
:1044000004464FF0000800F015FB4948006808B961
:10441000FFF76AFC474800682040002870D1D4B1FB
:10442000083404F00700B0B104F00700C0F1080040
:10443000044404F0070008B9012000E0002050B94E
:1044400000BF502080F31188BFF34F8FBFF36F8FF1
:1044500000BF00BFFEE7002C52D0374800688442FE
:104460004ED8364E3046056801E02E462D68686805
:10447000A04202D228680028F7D12D480068854262
:104480003ED0306800F10808286830606868001B7A
:10449000102819D92F1907F0070008B9012000E0EA
:1044A000002050B900BF502080F31188BFF34F8F18
:1044B000BFF36F8F00BF00BFFEE76868001B786026
:1044C0006C603846FFF70AFD1B4968680968081ADE
:1044D000194908600846006819490968884203D2EA
:1044E0001548006816490860124968680968084359
:1044F00068600020286013480068401C114908606B
:1045000001F038F908F0070008B9012000E00020A8
:1045100050B900BF502080F31188BFF34F8FBFF315
:104520006F8F00BF00BFFEE74046BDE8F08100008E
:104530008C000020A00000209000002084000020BB
:104540009400002098000020001F4FF0807303604B
:10455000001F21F001030360001F054B03601438A6
:104560000260001F6FF002030360203870470000F4
:104570002543000801460A69D1E901309860D1E974
:10458000010358605068884201D18868506000205B
:1045900008611068401E106010687047034B03608C
:1045A000034B0B608023136070470000240D002034
:1045B000800D0020034B0360034B0B604FF48073AE
:1045C00013607047800F0020DC0F002000F108010D
:1045D00041604FF0FF31816000F10801C16001616D
:1045E00000210160704700210161704710B502464B
:1045F0000B685C1C0CB9106907E002F1080000E0D0
:104600004068446824689C42FAD944684C604C680D
:10461000A160886041600A611468641C146010BD68
:1046200042684A6093688B60936859609160086142
:1046300003685B1C0360704700BF502080F3118843
:10464000BFF34F8FBFF36F8F00BF0E480068401C51
:104650000C49086008460068012812D10A48006821
:10466000C0B208B9012000E0002050B900BF5020BE
:1046700080F31188BFF34F8FBFF36F8F00BF00BF70
:10468000FEE77047A400002004ED00E00D4800683C
:1046900050B900BF502080F31188BFF34F8FBFF394
:1046A0006F8F00BF00BFFEE706480068401E054947
:1046B00008600846006820B9002080F3118800BF18
:1046C00000BF7047A400002070B506463546002E96
:1046D00044D0083D2C46224960680968084008B16A
:1046E000012000E0002050B900BF502080F3118865
:1046F000BFF34F8FBFF36F8F00BF00BFFEE720688F
:1047000008B9012000E0002050B900BF502080F31C
:104710001188BFF34F8FBFF36F8F00BF00BFFEE75D
:104720000F49606809680840C0B12068B0B90C49F9
:10473000606809688843606000F07CF90949606836
:1047400009680844074908602046FFF7C7FB064888
:104750000068401C0449086001F00CF870BD0000BE
:10476000A0000020900000209C00002000204FF0BE
:10477000E02108618861064800684FF47A71B0FB57
:10478000F1F0401E4FF0E0214861072008617047BA
:104790002C00002070B5FBF75DFD0446102C16D3ED
:1047A00004F1E02090F8F05315480078854201DBD1
:1047B000012000E0002050B900BF502080F3118894
:1047C000BFF34F8FBFF36F8F00BF00BFFEE70D48F1
:1047D000006800F4E0600C490968884201D80120B3
:1047E00000E0002050B900BF502080F31188BFF3D3
:1047F0004F8FBFF36F8F00BF00BFFEE770BD00009B
:10480000A80000200CED00E0AC00002002460020D3
:104810000BE0084B53F8303033B9064B43F83010F7
:1048200003EBC0035A6002E0401C0828F1D300BF2C
:1048300070470000080700202DE9F04105460E46AC
:1048400017462C46FFF7F8FE94F94400401C10B9B7
:10485000002084F8440094F94500401C10B9002061
:1048600084F84500FFF712FFA06B28B93A4631469D
:1048700004F1240000F062F82046FFF780FDBDE857
:10488000F081000070B504460025D4B112480068DC
:1048900008B9012000E0002050B900BF502080F38B
:1048A0001188BFF34F8FBFF36F8F00BF00BFFEE7CC
:1048B00000F0C0F800212046FFF78EF800F05AFF04
:1048C00005463DB94FF0805004490860BFF34F8F53
:1048D000BFF36F8F70BD00006800002004ED00E0A2
:1048E0000349096801600349096841607047000095
:1048F0005800002044000020012001490860704752
:104900005400002070B504460D4654B900BF502035
:1049100080F31188BFF34F8FBFF36F8F00BF00BFCD
:10492000FEE70548016818312046FFF75FFE0121C8
:104930002846FFF751F870BD3000002070B50546DD
:104940000E46144655B900BF502080F31188BFF3BE
:104950004F8FBFF36F8F00BF00BFFEE706480168AF
:1049600018312846FFF75CFE0CB14FF0FF362146A8
:104970003046FFF731F870BD3000002010B586B02A
:1049800000200590049003AA04A905A8FFF706FEDD
:104990000022DDE904101346CDE9002102901EA19A
:1049A0001F48039A00F032FD1E490860084600685F
:1049B00008B1012400E00024012C02D100F05CFFCA
:1049C0000446012C15D100BF502080F31188BFF39D
:1049D0004F8FBFF36F8F00BF4FF0FF301249086059
:1049E00001201249086000201149086000F072F8A7
:1049F00010E0601C08B1012000E0002050B900BFA9
:104A0000502080F31188BFF34F8FBFF36F8F00BF2B
:104A100000BFFEE706B010BD49444C450000000051
:104A2000653D000864000020600000204C0000206C
:104A30004400002002480068401C0149086070479B
:104A4000680000201E48006818B101201D49086058
:104A500034E000201B4908601B4801680CE051B994
:104A600000BF502080F31188BFF34F8FBFF36F8FCB
:104A700000BF00BFFEE7491E01EB8100134A52F858
:104A8000200008B9012000E000200028E7D101EB58
:104A900081020E4B03EB820042685268426000F1D3
:104AA00008024368934202D14268526842604268F9
:104AB000D268074B1A600448016000BF70470000CD
:104AC0006800002054000020480000204807002013
:104AD000300000201CB5524800685249884201D07D
:104AE000012000E0002050B900BF502080F3118861
:104AF000BFF34F8FBFF36F8F00BF00BFFEE7484883
:104B000000684849491E884201D0012000E0002089
:104B100050B900BF502080F31188BFF34F8FBFF30F
:104B20006F8F00BF00BFFEE73F4908460078019045
:104B3000FF200A4610700846007800909DF800009B
:104B400000F0F0009DF80020904201D1012000E02B
:104B5000002050B900BF502080F31188BFF34F8F61
:104B6000BFF36F8F00BF00BFFEE79DF8000000F0AD
:104B700050002E4A107007202D4A106009E02C4882
:104B80000068401E2A4A10609DF800004006000E92
:104B900000909DF8000000F080008028EFD02448AD
:104BA0000068C0F10700042801D1012000E00020C6
:104BB00050B900BF502080F31188BFF34F8FBFF36F
:104BC0006F8F00BF00BFFEE7194800680002184A57
:104BD00010601046008800F4E0601060124A0198EE
:104BE00010700F482030006840F470000C492031EC
:104BF00008600846006840F070400860FFF7B6FDA6
:104C000000200C490860FBF7EDFA0B48006840F003
:104C1000404009490860FBF7D1FA00201CBD0000A4
:104C200000ED00E071C20F4100E400E0A8000020A8
:104C3000AC000020A400002034EF00E010B500BF5D
:104C4000502080F31188BFF34F8FBFF36F8F00BFE9
:104C500000F050FC18B14FF080500449086000BFCC
:104C6000002080F3118800BF10BD000004ED00E0BB
:104C70002DE9F84305460E4617460DB1012000E028
:104C8000002050B900BF502080F31188BFF34F8F30
:104C9000BFF36F8F00BF00BFFEE705FB06F808F10A
:104CA0005000FFF7ABFB044664B1A14609F150097F
:104CB000002084F846003B464A4631462846009488
:104CC000FFF764F82046BDE8F8832DE9F8438046F5
:104CD0000E4617461D46DDF82090B8F1000F01D0B2
:104CE000012000E0002050B900BF502080F311885F
:104CF000BFF34F8FBFF36F8F00BF00BFFEE70DB153
:104D0000012000E0002050B900BF502080F311883E
:104D1000BFF34F8FBFF36F8F00BF00BFFEE707B138
:104D20000EB1012000E0002050B900BF502080F3F8
:104D30001188BFF34F8FBFF36F8F00BF00BFFEE737
:104D400007B90EB9012000E0002050B900BF502083
:104D500080F31188BFF34F8FBFF36F8F00BF00BF89
:104D6000FEE7502000900098502801D1012000E07B
:104D7000002050B900BF502080F31188BFF34F8F3F
:104D8000BFF36F8F00BF00BFFEE700BF2C464CB1E2
:104D9000012084F846004B463A463146404600948E
:104DA000FEF7F4FF2046BDE8F883000070B5054625
:104DB0000E462C4654B900BF502080F31188BFF333
:104DC0004F8FBFF36F8F00BF00BFFEE7FFF734FCCC
:104DD000D4E90F12206801FB0200A0600020A0634C
:104DE00020686060E06B401E226C216800FB0211AD
:104DF000E160FF2084F8440084F845009EB92069F2
:104E000008B9012000E00020A8B904F1100000F06A
:104E100065FC80B14FF0805009490860BFF34F8FA7
:104E2000BFF36F8F07E004F11000FFF7CFFB04F131
:104E30002400FFF7CBFBFFF729FC012070BD000029
:104E400004ED00E02DE9FF4383B0064688461D4689
:104E50004FF00009344654B900BF502080F3118848
:104E6000BFF34F8FBFF36F8F00BF00BFFEE7B8F1F6
:104E7000000F01D1206C08B9012000E0002050B9DA
:104E800000BF502080F31188BFF34F8FBFF36F8FA7
:104E900000BF00BFFEE7022D02D1E06B012801D167
:104EA000012000E0002050B900BF502080F311889D
:104EB000BFF34F8FBFF36F8F00BF00BFFEE700F05F
:104EC00003FB08B9059808B9012000E0002050B99B
:104ED00000BF502080F31188BFF34F8FBFF36F8F57
:104EE00000BF00BFFEE700BFFFF7A6FBA06BE16BB2
:104EF000884201D3022D28D12A4641462046FEF79A
:104F000078FE0746606A08B9012000E0002068B911
:104F100004F1240000F0E2FB88B14FF080503249E8
:104F20000860BFF34F8FBFF36F8F08E03FB14FF0C2
:104F300080502D490860BFF34F8FBFF36F8FFFF78D
:104F4000A5FB012007B0BDE8F083059818B9FFF76D
:104F50009DFB0020F6E7B9F1000F04D101A8FFF78F
:104F6000BFFC4FF00109FFF791FBFFF763FDFFF76F
:104F700063FB94F94400401C10B9002084F84400FD
:104F800094F94500401C10B9002084F84500FFF753
:104F90007DFB05A901A800F0C1F9F0B92046FFF793
:104FA0000AF8A0B104F110000599FFF7ABFC204608
:104FB000FFF7E5F900F0DEFB002895D14FF08050B7
:104FC00009490860BFF34F8FBFF36F8F8CE720460E
:104FD000FFF7D5F900F0CEFB86E72046FFF7CFF9C3
:104FE00000F0C8FB0020ADE704ED00E02DE9F84F2C
:104FF00007468A4690461E463C4654B900BF50209C
:1050000080F31188BFF34F8FBFF36F8F00BF00BFD6
:10501000FEE7BAF1000F01D1206C08B9012000E0D1
:10502000002050B900BF502080F31188BFF34F8F8C
:10503000BFF36F8F00BF00BFFEE7022E02D1E06B0F
:10504000012801D1012000E0002050B900BF50200C
:1050500080F31188BFF34F8FBFF36F8F00BF00BF86
:10506000FEE7FFF797FB00BF5021EFF3118081F3BC
:105070001188BFF34F8FBFF36F8F00BF0546A06B42
:10508000E16B884201D3022E25D194F945B0A06B83
:105090000090324651462046FEF7ABFD0BF1010071
:1050A00088B9606A08B9012000E0002050B904F115
:1050B000240000F013FB28B1B8F1000F02D001204A
:1050C000C8F8000004E00BF1010040B284F845008C
:1050D0004FF0010901E04FF0000900BF85F311888E
:1050E00000BF4846BDE8F88F2DE9F74183B005467B
:1050F0000E464FF000082C4654B900BF502080F3F4
:105100001188BFF34F8FBFF36F8F00BF00BFFEE763
:105110000EB9206C08B9012000E0002050B900BF92
:10512000502080F31188BFF34F8FBFF36F8F00BF04
:1051300000BFFEE700F0C8F908B9059808B90120DA
:1051400000E0002050B900BF502080F31188BFF369
:105150004F8FBFF36F8F00BF00BFFEE700BFFFF7A9
:105160006BFAA76BF7B131462046FEF72DFD781E8E
:10517000A063206908B9012000E0002060B904F1B3
:10518000100000F0ABFA38B14FF080502F490860A2
:10519000BFF34F8FBFF36F8FFFF778FA012006B090
:1051A000BDE8F081059818B9FFF770FA0020F6E71E
:1051B000B8F1000F04D101A8FFF792FB4FF00108EE
:1051C000FFF764FAFFF736FCFFF736FA94F944006C
:1051D000401C10B9002084F8440094F94500401C9C
:1051E00010B9002084F84500FFF750FA05A901A87E
:1051F00000F094F8F0B92046FEF7D0FEA0B104F11B
:1052000024000599FFF77EFB2046FFF7B8F800F071
:10521000B1FA0028A3D14FF080500C490860BFF3C9
:105220004F8FBFF36F8F9AE72046FFF7A8F800F083
:10523000A1FA94E72046FFF7A2F800F09BFA204677
:10524000FEF7ACFE00288AD00020A8E704ED00E0BD
:105250002DE9F05F064689461746344654B900BF2B
:10526000502080F31188BFF34F8FBFF36F8F00BFC3
:1052700000BFFEE7B9F1000F01D1206C08B9012091
:1052800000E0002050B900BF502080F31188BFF328
:105290004F8FBFF36F8F00BF00BFFEE7FFF77AFAB3
:1052A00000BF5021EFF3118081F31188BFF34F8FBE
:1052B000BFF36F8F00BF0546D4F838A0BAF1000FD6
:1052C00022D094F944B049462046FEF77DFCAAF16D
:1052D0000100A0630BF1010070B9206908B9012039
:1052E00000E0002068B904F1100000F0F7F940B1C7
:1052F0003FB10120386004E00BF1010040B284F8B6
:1053000044004FF0010801E04FF0000800BF85F3B2
:10531000118800BF4046BDE8F09F000070B505460B
:105320000C4655B900BF502080F31188BFF34F8F52
:10533000BFF36F8F00BF00BFFEE754B900BF50201E
:1053400080F31188BFF34F8FBFF36F8F00BF00BF93
:10535000FEE7FFF771F9124802686868131A2068BF
:10536000401C08B9002617E00E49286809688842E1
:1053700004D06868904201D801260DE02068984268
:1053800007D92068C01A20602846FFF7A9FA00262E
:1053900002E0002020600126FFF778F9304670BD5A
:1053A00044000020580000202DE9FF4F85B08046C2
:1053B00089461746DDE912ABB800FFF71FF806462D
:1053C00056B15C20FFF71AF804460CB1266304E0DE
:1053D0003046FFF779F900E000248CB1002084F812
:1053E0005900CDE900ABCDE902403A464946404676
:1053F000089BFEF7E0FC2046FEF72CFB012501E0B0
:105400004FF0FF35284609B0BDE8F08F2DE9F04F89
:1054100085B00746884691469A46DDE90EB6109C4F
:105420000EB1012000E0002050B900BF502080F3F1
:105430001188BFF34F8FBFF36F8F00BF00BFFEE730
:105440000CB1012000E0002050B900BF502080F3D3
:105450001188BFF34F8FBFF36F8F00BF00BFFEE710
:105460005C20039003985C2801D1012000E000201B
:1054700050B900BF502080F31188BFF34F8FBFF3A6
:105480006F8F00BF00BFFEE700BFB4B1AEB12546CD
:105490002C462E63022085F85900002004A95346AB
:1054A0004A46CDE900B1CDE9025041463846FEF703
:1054B00082FC2846FEF7CEFA01E000200490049812
:1054C00005B0BDE8F08F00000549096809B9012061
:1054D00005E00449096809B9022000E0002070478E
:1054E0004C00002068000020014908687047000057
:1054F000440000202DE9F0414FF0000843480068C7
:1055000000287BD142480068451C4148056015BB16
:1055100040480068006808B9012000E0002050B948
:1055200000BF502080F31188BFF34F8FBFF36F8F00
:1055300000BF00BFFEE737480768374800683549B5
:1055400008603548076035480068401C33490860EA
:10555000FEF766FE00BF3248006885423BD300BFBD
:105560002C480068006808B9012000E0002020B144
:105570004FF0FF302A4908602CE026480068C068D8
:10558000C4686668B54202D22548066022E0201D44
:10559000FEF7F0FFA06A18B104F11800FEF7EAFF69
:1055A0002049E06A0968884202D91E49E06A086019
:1055B000E16A01EB81011C4A02EB8100211DFFF72A
:1055C0002FF81A49E06A0968C96A8842C8D34FF0BF
:1055D0000108C5E700BF15480068C06A00EB8000FD
:1055E000114951F82000012801D94FF00108104855
:1055F000006808B14FF0010805E0FFE70D480068BA
:10560000401C0C4908604046BDE8F081680000205D
:105610004400002034000020380000205800002002
:1056200060000020480000204807002030000020D3
:10563000540000205000002070B505462C4600267E
:10564000002D43D022480068844201D1012000E0AF
:10565000002050B900BF502080F31188BFF34F8F56
:10566000BFF36F8F00BF00BFFEE7206D50B900BFD2
:10567000502080F31188BFF34F8FBFF36F8F00BFAF
:1056800000BFFEE7206D401E2065E16CE06A8842A5
:105690001CD0206DD0B9201DFEF76CFFE06CE062DD
:1056A000E06AC0F13800A0610A49E06A09688842EE
:1056B00002D90849E06A0860E16A01EB8101064A03
:1056C00002EB8100211DFEF7ABFF0126304670BDC5
:1056D00030000020480000204807002070B5064632
:1056E000F068C46854B900BF502080F31188BFF33C
:1056F0004F8FBFF36F8F00BF00BFFEE704F11800AC
:10570000FEF738FF15480068A0B9201DFEF732FFEC
:105710001349E06A0968884202D91149E06A0860C1
:10572000E16A01EB81010F4A02EB8100211DFEF7C6
:1057300077FF04E004F118010B48FEF771FF0B49F5
:10574000E06A0968C96A884204D90125012008492C
:10575000086000E00025284670BD000068000020B9
:105760004800002048070020D00B00203000002017
:105770005400002070B5002400263648006850B957
:1057800000BF502080F31188BFF34F8FBFF36F8F9E
:1057900000BF00BFFEE7FEF74FFF2E480068401E27
:1057A0002C4908600846006800284ED12A48006845
:1057B00000284AD023E02948C068C46804F11800D2
:1057C000FEF7D8FE201DFEF7D5FE2549E06A0968E0
:1057D000884202D92249E06A0860E16A01EB81014E
:1057E000204A02EB8100211DFEF71AFF1E49E06AE4
:1057F0000968C96A884202D301201C490860174819
:10580000006808B9012000E000200028D3D00CB1C6
:10581000FEF706FD1648056865B100BFFFF76AFE92
:1058200010B10120114908606D1E002DF6D1002035
:105830000F4908600D48006838B1012630070D494E
:105840000860BFF34F8FBFF36F8FFEF71FFF304627
:1058500070BD00006800002040000020D00B002038
:10586000480000204807002030000020540000209D
:105870005000002004ED00E010B586B00024FEF7D3
:1058800045F916480068D0B100200590049003AA9D
:1058900004A905A8FEF78EFE0222DDE9041000230C
:1058A000CDE9002102900EA10F48039AFFF7AEFD4B
:1058B0000E4908600846006800B1012400BF54B9D1
:1058C00000BF502080F31188BFF34F8FBFF36F8F5D
:1058D00000BF00BFFEE7204606B010BD74000020E8
:1058E000546D7220537663006543000878000020F1
:1058F0002DE9FF4704460D4616461F46DDF8308069
:105900004FF0000954B900BF502080F31188BFF355
:105910004F8FBFF36F8F00BF00BFFEE714480068D2
:1059200010B3009501960294062D15DAFFF7CCFD11
:10593000022808D10023424669460D480068FFF757
:1059400081FA814610E000231A466946084800683B
:10595000FFF778FA814607E000233A466946044893
:105960000068FFF743FB8146484604B0BDE8F08776
:1059700074000020EC5A0008000000000000000045
:10598000000000000000000000020000080000000D
:105990000000000000000000F85A000800000000AD
:1059A00000000000000000000000000000080000EF
:1059B000180000000000000000000000E05A00088D
:1059C00000000000000000000000000000000000D7
:1059D00000020000080000000000000000000000BD
:1059E000C85A00080000000000000000000000008D
:1059F0000000000000000000D45A00080000000071
:105A00000000000000000000000000000000000096
:105A10003F065B4F666D7D077F6F777C395E7971DE
:105A2000000610160006101600000000000000001E
:105A30000102030406070809000000000102030434
:105A40000040404040404040404041414141414091
:105A50004040404040404040404040404040404046
:105A600040050202020202020202020202020202D5
:105A700002202020202020202020200202020202DA
:105A80000202909090909090101010101010101032
:105A9000101010101010101010101010020202023E
:105AA0000202888888888888080808080808080882
:105AB000080808080808080808080808020202027E
:105AC00040000000415A00085175657565556172C6
:105AD000743100005175657565556172743600004A
